:020000040800F2
:100000002811002045010008010C00080D0A000815
:10001000FD0B00082F0200083B190008000000003B
:10002000000000000000000000000000E9120008CD
:10003000DD06000800000000A10D0008A91400085A
:100040005F0100085F0100085F0100085F01000810
:100050005F0100085F0100085F0100085F01000800
:100060005F0100085F0100085F0100085F010008F0
:100070005F0100085F0100085F0100085F010008E0
:100080005F0100085F0100085F0100085F010008D0
:100090005F0100085F0100085F0100085F010008C0
:1000A0005F0100085F0100085F0100085F010008B0
:1000B000111500085F0100085F0100085F010008DA
:1000C0005F0100085F0100085F0100085F01000890
:1000D0005F010008A11600085F0100085F01000829
:1000E0005F0100085F0100085F0100085F01000870
:1000F0005F0100085F0100085F0100085F01000860
:100100005F0100085F0100084D1500085F0100084D
:100110005F0100085F0100085F0100085F0100083F
:100120005F0100085F0100085F0100085F0100082F
:10013000DFF80CD000F04AF800480047371E0008EE
:10014000281100200648804706480047FEE7FEE7E2
:10015000FEE7FEE7FEE7FEE7FEE7FEE7FEE7FEE777
:10016000B1140008310100082DE9F05F05460020B8
:1001700092469B4688460646814640241BE0284618
:1001800041464746224600F042F853465A46C01AB6
:10019000914110D311461846224600F029F82D1A35
:1001A00067EB01084F4622460120002100F020F8AD
:1001B00017EB00094E41201EA4F10104DFDC484684
:1001C00031462A464346BDE8F09F0000064C074DE5
:1001D00006E0E06840F0010394E807009847103417
:1001E000AC42F6D3FFF7A8FF541E0008741E0008A7
:1001F000202A04DB203A00FA02F1002070479140E7
:10020000C2F1200320FA03F3194390407047202ADB
:1002100004DB203A21FA02F00021704721FA02F3B0
:10022000D040C2F12002914008431946704700BFF8
:10023000FEE7000000200149087070470E00002012
:1002400008B50121042000F061FE0121102000F01A
:100250005DFE0220ADF8000001208DF8020048206C
:100260008DF8030069460E4800F023FB0220ADF82C
:10027000000001208DF8020048208DF80300694637
:10028000074800F016FB0120ADF800008DF80200D1
:1002900048208DF803006946024800F00AFB08BDBB
:1002A000001001400008014008B50121102000F0B5
:1002B0002DFE1020ADF8000003208DF80200102064
:1002C0008DF8030069460D4800F0F3FA0122102171
:1002D0000A4800F08FFB2020ADF8000003208DF8C5
:1002E000020010208DF803006946044800F0E1FA8E
:1002F00000222021014800F07DFB08BD00100140D4
:1003000010B54FF4A06000F0C1FC10BD08B501218C
:10031000082000F0FBFD0121102000F0F7FD4FF454
:100320000050ADF8000010208DF8030003208DF878
:1003300002006946294800F0BCFA4FF400512748F2
:1003400000F056FB4FF40040ADF8000010208DF88F
:10035000030003208DF802006946204800F0A9FA46
:100360004FF400411D4800F043FB4FF48040ADF8CE
:10037000000010208DF8030003208DF8020069466C
:10038000164800F096FA4FF48041144800F030FB14
:100390004FF48050ADF8000010208DF803000320CA
:1003A0008DF8020069460D4800F083FA4FF4805141
:1003B0000A4800F01DFB0820ADF8000010208DF861
:1003C000030003208DF802006946054800F071FA29
:1003D0000821034800F00CFB08BD0000000C0140A0
:1003E0000010014010B50021AE2000F097FC002164
:1003F000D52000F093FC0021502000F08FFC00215C
:10040000A82000F08BFC00213F2000F087FC002199
:10041000D32000F083FC0021084600F07FFC00217F
:10042000402000F07BFC00218D2000F077FC0021B3
:10043000142000F073FC0021202000F06FFC00214C
:10044000022000F06BFC0021A12000F067FC0021DD
:10045000C02000F063FC0021DA2000F05FFC0021E6
:10046000122000F05BFC0021812000F057FC0021ED
:10047000EF2000F053FC0021D92000F04FFC0021B8
:10048000F12000F04BFC0021DB2000F047FC0021B4
:10049000302000F043FC0021A42000F03FFC0021AC
:1004A000A62000F03BFC0021AF2000F037FC10BD7F
:1004B00010B500F03BFD4FF4803000F0F9FD00F086
:1004C00055FE0446012C24D1102000F083F90220AF
:1004D00000F0C4F9002000F0DFFD002000F01AFE5B
:1004E000A00200F00BFE4FF4E011200400F024FE07
:1004F000012000F01BFE00BF392000F0A7FD0028FE
:10050000FAD0022000F026FE00BF00F0BDFD082852
:10051000FBD110BD7FB505460C460121084600F011
:10052000E5FCADF80850ADF804400020ADF80A0035
:10053000ADF8060001A94FF0804001F053F8012208
:100540001146900701F044F81C208DF800000020AF
:100550008DF8010003208DF8020001208DF80300C2
:10056000684600F05BFB0121880701F014F87FBDAD
:100570007FB505460C460121082000F0B7FCADF818
:100580000850ADF804400020ADF80A00ADF80600B0
:1005900001A90E4801F026F8012211460B4801F08E
:1005A00017F832208DF8000000208DF8010003209C
:1005B0008DF8020001208DF80300684600F02EFB44
:1005C0000121024800F0E7FF7FBD0000000C004061
:1005D00010B586B004460121880300F097FC012184
:1005E000042000F093FC4FF40070ADF814001820C4
:1005F0008DF8170003208DF8160005A9234800F098
:1006000058F94FF48060ADF8140004208DF81700FD
:1006100003208DF8160005A91C4800F04AF901A82E
:1006200001F07FF901940020ADF80800ADF80A0050
:10063000ADF80C000C20ADF80E000020ADF8100055
:1006400001A9134801F0F8F825208DF800000120D9
:100650008DF801008DF802008DF80300684600F067
:10066000DDFA012240F22551094801F0C0F80122CB
:1006700040F22771064801F0BAF80121044801F060
:1006800073F800200349087006B010BD000801404F
:10069000003801401400002030B50346002016E069
:1006A000B3F900509C68645D0C541C88641C24B22F
:1006B0001C80B3F90040B3F90450AC4201DB0024C4
:1006C0001C80441C20B2DC88641E24B2DC80B3F998
:1006D0000640002C01DD9042E2DB30BD7047000097
:1006E00001B504490098086000BF0248006800286E
:1006F000FBD108BD2C00002070B50346002016E099
:100700000C5CB3F902609D68AC555C88641C24B233
:100710005C80B3F90240B3F90450AC4201DB002421
:100720005C80441C20B2DC88641C24B2DC80B3F9F9
:100730000640B3F90450AC4201DA9042E0DB70BDF0
:1007400030B5044604254FF4302000F09FF80546EC
:10075000042D17D10C48006940F002000A490861D5
:1007600008464461006940F0400008614FF43020C1
:1007700000F08CF805460448006941F6FD71084018
:1007800001490861284630BD0020024004200B4981
:10079000C96801F0010109B101200EE00749C968EB
:1007A00001F0040109B1022007E00449C96801F021
:1007B000100109B1032000E004207047002002402E
:1007C0000348006940F0800001490861704700005B
:1007D000002002400549096821F01001034A116018
:1007E0001146096801431160704700000020024073
:1007F00078B506460C46042500200090E80200F07B
:1008000045F80546042D24D11348006940F0010045
:10081000114908613480E80200F038F80546042DDB
:1008200010D1B01C0090200C00990880E80200F064
:100830002DF805460848006941F6FE710840064952
:10084000086106E00448006941F6FE71084002496B
:100850000861284678BD00000020024001460020C3
:10086000034A106800F03800084310607047000029
:10087000002002400248034948600348486070472E
:100880002301674500200240AB89EFCD00B5024649
:100890000423FFF77BFF034603E0FFF777FF0346E0
:1008A000521E012B01D1002AF7D102B905231846A7
:1008B00000BD2DE9F041024600250026002000235E
:1008C0000024002791F803C00CF00F0591F803C035
:1008D0000CF0100CBCF1000F03D091F802C04CEAF0
:1008E000050591F800C0BCF1000F31D0146800205C
:1008F0002BE04FF0010C0CFA00F3B1F800C00CEA49
:1009000003069E4220D183004FF00F0C0CFA03F730
:10091000BC4305FA03FC4CEA040491F803C0BCF1A3
:10092000280F06D14FF0010C0CFA00FCC2F814C0DD
:100930000AE091F803C0BCF1480F05D14FF0010C5B
:100940000CFA00FCC2F810C0401C0828D1D3146077
:10095000B1F800C0BCF1FF0F34DD546800202EE078
:1009600000F1080C4FF0010808FA0CF3B1F800C0D0
:100970000CEA03069E4221D183004FF00F0C0CFAC3
:1009800003F7BC4305FA03FC4CEA040491F803C0E6
:10099000BCF1280F05D100F1080C08FA0CF8C2F8D8
:1009A000148091F803C0BCF1480F07D100F1080C86
:1009B0004FF0010808FA0CF8C2F81080401C082813
:1009C000CED35460BDE8F0810246002093680B400E
:1009D0000BB1012000E00020704702460020D368E0
:1009E0000B400BB1012000E00020704741617047CF
:1009F000016170470AB1016100E041617047000088
:100A000001480078704700000E00002000BFFEE79C
:100A1000704710B500F04CFD00F055F800F022F8DA
:100A20004FF4E13000F098F800F08AF800F016F882
:100A300000F052F800F006F8FFF7EAFF00F016F8B1
:100A400010BD000010B5FFF7FBFB00200249087045
:100A50004870887010BD00000400002010B5FFF73A
:100A600023FC10BD10B5FFF74BFC10BD10B5FFF710
:100A70004DFC4FF480410948FFF7B8FF0A20FFF70B
:100A80002FFE4FF480410548FFF7B2FF0A20FFF721
:100A900027FEFFF7A7FC00F003F910BD000C014092
:100AA000704730B50B460024048044808280C480A7
:100AB0008360002104E0002485686C544C1C21B242
:100AC0009142F8DB30BD10B5FFF7F2FC10BD10B558
:100AD000FFF7E6FF10BD000030B5164800684FF480
:100AE0007A72B0FBF2F1B1F1807F01D301201DE0F9
:100AF00021F07F40401E4FF0E022506150170F223E
:100B0000002807DA13071D0E0B4B00F00F04241FFB
:100B10001D5503E013071C0E084B1C5400BF00209A
:100B20004FF0E022906107201061002008B100BF63
:100B3000FEE730BD3000002018ED00E000E400E0EA
:100B400010B5472140F2E730FFF7E4FC472140F2BF
:100B5000E730FFF70DFD10BD10B5044600F004F8B6
:100B60002046FFF735FD10BD10B5002406E000203B
:100B70000949085509490855601C04B2642CF6DB84
:100B8000642205490648FFF78CFF642203490548A3
:100B9000FFF787FF10BD000060040020C4040020A0
:100BA000480400205404002070B504461148008811
:100BB000401C1049088008460088A04219DB00202C
:100BC000088010210C48FFF708FFC0F10100C5B2F2
:100BD0002A4610210848FFF70DFF20210648FFF79D
:100BE000FCFEC0F10100C5B22A4620210248FFF7F1
:100BF00001FF70BD020000200010014000BFFEE7B1
:100C00007047000000F01F0201219140024A430991
:100C100042F823107047000080E200E070B5002128
:100C200000230F22C47804B3154C246804F4E06454
:100C3000C4F5E064210AC1F10403CA40447804FA0F
:100C400003F184781440214309010E4C0678A15524
:100C5000047804F01F050124AC4005786D11AD0047
:100C600005F1E025C5F8004109E0047804F01F050E
:100C70000124AC40044D0678761145F8264070BD3D
:100C80000CED00E000E400E080E100E002490143F7
:100C9000024A1160704700000000FA050CED00E008
:100CA00070B500240CE0002506E00020074901EBA8
:100CB000C5010855681CC5B2802DF6DB601CC4B2A6
:100CC000082CF0DB00F004F870BD000048000020A4
:100CD00070B500241CE004F1B001C8B2002100F09E
:100CE0001DF80021084600F019F80021102000F03E
:100CF00015F8002508E0084901EBC501085D012150
:100D000000F00CF8681CC5B2802DF4DB601CC4B286
:100D1000082CE0DB70BD00004800002070B50446E0
:100D20000D4625B908211C48FFF760FE05E0012D9E
:100D300003D108211848FFF75BFE4FF48051174894
:100D4000FFF754FE00261BE04FF400511348FFF755
:100D50004DFE04F0800028B14FF400410F48FFF72A
:100D600047FE04E04FF400410C48FFF73FFE4FF40C
:100D700000510A48FFF73CFE6006040E701CC6B224
:100D8000082EE1DB4FF480510448FFF731FE0821C3
:100D90000148FFF72DFE70BD00100140000C01401E
:100DA0007047000010B5FFF72BFE00B3FA20FFF7E5
:100DB000FBFE0F480078042812DB0E4A0E49002083
:100DC00000F094FA0D4A0E49012000F08FFA0D4A06
:100DD0000D49022000F08AFA00200549087004E05D
:100DE00003480078401C02490870FFF723FA10BD41
:100DF000000000200D0E0008D90E0008450E000866
:100E0000DB0E0008890E0008DD0E000810B5022276
:100E10000349044800F0ECF903A000F0B3FD10BD55
:100E2000481E000800C00008577269746520466CAF
:100E30006173683A307866666666666666660D0A4D
:100E40000000000010B502220349044800F0D0F968
:100E500003A000F097FD10BD4C1E000800C0000864
:100E6000577269746520466C6173683A307837361A
:100E70003534333231302C20307838396162636454
:100E800065660D0A0000000010B5E4B00BA000F08C
:100E900079FD022269460C4800F095F9002406E02D
:100EA0005DF8241009A000F06DFD601C04B2022C56
:100EB000F6DB08A000F066FD64B010BD5265616409
:100EC00020466C6173683A0000C00008253038780D
:100ED000000000000D0A000070477047704701468F
:100EE000C88808B9012070470020FCE729B1064AEC
:100EF000D2690243044BDA6104E0034AD2698243B7
:100F0000014BDA61704700000010024029B1064A27
:100F100092690243044B9A6104E0034A9269824356
:100F2000014B9A6170470000001002400F480068B2
:100F300040F001000D490860084640680C4908402F
:100F40000A494860084600680A490840074908609D
:100F50000846006820F4802008600846406820F4B5
:100F6000FE0048604FF41F00886070470010024088
:100F70000000FFF8FFFFF6FE30B50021002200243C
:100F800000232D4D6D6805F00C0121B1042905D019
:100F9000082923D105E0294D056022E0274D056091
:100FA0001FE0254D6D6805F47012234D6D6805F442
:100FB0008034022505EB92421CB9214D5543056052
:100FC0000BE01D4D6D6805F400351DB11C4D5543FA
:100FD000056002E0194D5543056002E0174D0560BC
:100FE00000BF00BF144D6D6805F0F0010909154DF3
:100FF0006B5C0568DD4045600F4D6D6805F4E06190
:10100000090A104D6B5C4568DD4085600A4D6D68CE
:1010100005F46051C90A0B4D6B5C4568DD40C56045
:10102000054D6D6805F44041890B074D6B5CC56843
:10103000B5FBF3F5056130BD0010024000127A00E7
:1010400000093D00150000202500002010B50146D4
:101050000022002300204A11012A02D1094C2368F2
:1010600006E0022A02D1074C236A01E0054C636ABC
:1010700001F01F02012494401C400CB1012000E04B
:10108000002010BD001002400248406800F00C0033
:10109000704700000010024001460020034A5068DB
:1010A00020F0F0000843506070470000001002403C
:1010B0001149096821F480310F4A1160114609680D
:1010C00021F480211160B0F5803F03D0B0F5802F6E
:1010D0000ED106E00849096841F48031064A1160E2
:1010E00007E00549096841F4A021034A116000E0C6
:1010F00000BF00BF70470000001002400146002002
:10110000034A506820F4E0600843506070470000D4
:101110000010024001460020034A506820F460504D
:1011200040EAC10050607047001002400149086663
:10113000704700000000424202460020044B5868FD
:1011400020F47C1042EA01031843014B58607047B9
:101150000010024001460020034A506820F00300BE
:1011600008435060704700000010024038B500206E
:1011700000900024002500BF3120FFF767FF0546DF
:101180000098401C00900098B0F5A06F01D0002D91
:10119000F2D03120FFF75AFF08B1012400E000240B
:1011A000204638BD70B5044600250122214603487B
:1011B000FFF772FAC5B2284670BD0000480400204F
:1011C0000146086870472DE9F04105460E4617466E
:1011D000A846002408E04046FFF7F2FF46F8240046
:1011E00008F10408601C84B2BC42F4DBBDE8F08165
:1011F0002DE9F74F8246D046029FB8F1006F02D327
:101200003548804504D335A000F0BCFBBDE8FE8F17
:10121000FFF730FBA8F1006B4FEADB26CBF3880920
:10122000C9F50074A74200DC3C464FE04FF0006176
:1012300001EBC6208A142B49FFF7C5FF002509E002
:1012400009EB0500274951F82000401C00B103E0DC
:10125000681C85B2A542F3DB00BFA5421CDA4FF043
:10126000006101EBC620FFF76BFA002509E0019849
:1012700050F8250009EB05011A4A42F82100681CC4
:1012800085B2A542F3DB4FF0006101EBC6208A1462
:10129000144900F061FB04E022464046019900F049
:1012A0005BFBA74200D112E0761C4FF000090198C9
:1012B00000EB8400019008EB8408381B87B2B7F577
:1012C000007F02DD4FF4007400E03C46AEE700BF53
:1012D000FFF776FA00BF99E7000004086572726FA5
:1012E000720D0A00280500207047000070B5044602
:1012F0000D4616462548005D4006000E2349085558
:1013000024B1012C0CD0022C1ED113E00221204864
:10131000FFF75AFB1D49095D08431C49085514E0B5
:1013200004211B48FFF750FB1849095D0843174982
:1013300008550AE001211748FFF746FB1349095DEC
:1013400008431249085500E000BF00BF0F48005D88
:101350001149095D884208D11048005D012804D177
:10136000B04700200D4908550EE00848005D0A49C5
:10137000095DC943C9B2884206D10848005D18B961
:10138000A84701200549085570BD0000070000204E
:101390000010014000080140040000200A00002065
:1013A00010B50446E1B2054800F0B7FA00BF40218D
:1013B000024800F0E5F90028F9D010BD00380140DE
:1013C00010B500F001F810BD0CB5002001900090A0
:1013D0003348006840F480303149086000BF30482D
:1013E000006800F4003000900198401C01900098C3
:1013F00018B90198B0F5A06FF1D12948006800F440
:10140000003010B10120009001E000200090009811
:10141000012843D12348006840F0100021490860AA
:101420000846006820F0030008600846006840F0A5
:10143000020008601A484068194948600846406838
:1014400048600846406840F480604860084640684C
:1014500020F47C1048600846406840F4E81048607A
:101460000846006840F08070086000BF0C480068C3
:1014700000F000700028F9D00948406820F003000F
:10148000074948600846406840F00200486000BFD5
:101490000348406800F00C000828F9D10CBD00009A
:1014A000001002400020024010B500F0EDF810BD21
:1014B00010B51348006840F0010011490860084663
:1014C0004068104908400E494860084600680E49C7
:1014D00008400B4908600846006820F48020086036
:1014E0000846406820F4FE0048604FF41F00886002
:1014F000FFF766FF4FF000600449086010BD000070
:10150000001002400000FFF8FFFFF6FE08ED00E0CB
:1015100010B50121880700F04AF8012803D1012104
:10152000800700F035F807480088401C054908800E
:1015300008460088022804DB0020088001200249B8
:10154000087010BD100000200E00002010B5012111
:101550000C4800F02CF8012803D10121094800F0C3
:1015600017F809480088401C074908800846008889
:10157000B0F57A7F04DB0020088001200349087061
:1015800010BD0000000C0040120000200F000020E1
:10159000CA430282704721B1028842F001020280F0
:1015A00004E002884FF6FE731A400280704730B59F
:1015B0000246002000230024158A05EA01039589CC
:1015C00005EA010413B10CB1012000E0002030BD98
:1015D0001AB183890B43838102E083898B43838122
:1015E00070470000002202881D4B98420ED01D4B10
:1015F00098420BD0B0F1804F08D01B4B984205D0D9
:101600001A4B984202D01A4B984204D14FF68F736E
:101610001A404B881A43174B984207D0164B9842F2
:1016200004D04FF6FF431A40CB881A4302808B88C0
:1016300083850B8803850A4B98420BD0094B98424F
:1016400008D00E4B984205D00D4B984202D00D4B5E
:10165000984201D10B7A03860123838270470000F0
:10166000002C01400034014000040040000800400C
:10167000000C0040001000400014004000400140F9
:1016800000440140004801400448006820B103487C
:101690000068401E01490860704700002C000020CF
:1016A00008B50020009040F22551204800F075F860
:1016B00058B12520FFF7A6FA1C4800F029F9C0B25E
:1016C00000909DF8000000F03BF90821174800F059
:1016D00057F8012806D10821144800F02DF81348C6
:1016E00000F016F940F22771104800F056F8E0B10A
:1016F00040F227710D4800F028F82520FFF782FA04
:101700006846FFF74FFD9DF80010084800F005F906
:101710000748FFF7E4FB40B10020064908700022AB
:1017200040F22771014800F062F808BD003801401E
:10173000480400201400002001F40072B2F5007F7C
:1017400000D100BFCA430280704710B500220023B9
:1017500040F66A14A14200D100BF0A12012494404D
:10176000A3B2DC43048010BD21B1828942F400524F
:10177000828104E082894DF6FF731A4082817047AE
:1017800002460020B1F5007F00D100BF13880B4056
:101790000BB1012000E00020704770B50246002424
:1017A00000230025002040F66A16B14200D100BF98
:1017B000C1F3421501F01F03012606FA03F3012DC0
:1017C00002D19689334006E0022D02D1168A3340B9
:1017D00001E0968A33400C12012606FA04F41688BA
:1017E000344013B10CB1012000E0002070BDF0B511
:1017F0000346002400260025002040F66A17B9425F
:1018000000D100BF1846C1F3421401F01F060127A2
:1018100007FA06F5012C01D10C3004E0022C01D1AD
:10182000103000E014301AB107682F43076002E05F
:101830000768AF430760F0BD2DE9F04786B0054665
:101840000E460024A24600BFA1460027B08900B181
:1018500000BF2F462C8A4CF6FF700440F0880443EA
:101860002C82AC894EF6F3100440B08831890843CD
:10187000718908430443AC81AC8A4FF6FF400440B1
:10188000B0890443AC8201A8FFF776FB1F4887426A
:1018900002D1DDF810A001E0DDF80CA0A88900F469
:1018A000004040B10AEBCA0000EB0A103168490061
:1018B000B0FBF1F807E00AEBCA0000EB0A10316850
:1018C0008900B0FBF1F86420B8FBF0F004012009B6
:1018D000642101FB1089A88900F4004040B1322046
:1018E00000EBC900B0FBF1F000F00700044308E092
:1018F000322000EB09106421B0FBF1F000F00F0082
:1019000004432C8106B0BDE8F08700000038014098
:1019100001468888C0F308007047C1F3080282803E
:1019200070474FF41651016000218180C180018110
:101930000C21418100218181704700BFFEE700003A
:1019400031B50024012269460248FEF7D5FEC4B233
:10195000204638BD540400202DE9F04105460E46CE
:101960001746A846002408E056F824104046FEF723
:101970003FFF08F10408601C84B2BC42F4DBBDE800
:10198000F08100000FB4054B10B503A9044A02987A
:1019900000F018F810BC5DF814FB0000271E0008CA
:1019A0004400002002E008C8121F08C1002AFAD132
:1019B00070477047002001E001C1121F002AFBD1CF
:1019C000704700002DE9FF4F8DB00F4605460026F9
:1019D00006E025280BD0DDE90F1290476D1C761C20
:1019E00028780028F5D111B03046BDE8F08F0024EA
:1019F000A246A1460122EC4900E0044315F8013F4C
:101A0000203B02FA03F00842F7D128782A2810D0A8
:101A10006FF02F022878A0F13001092914D80AEBC1
:101A20008A0102EB410144F0020400EB010A6D1C43
:101A3000F0E701CF5FEA000A03D544F40054CAF18D
:101A4000000A44F002046D1C28782E2817D115F8DE
:101A5000010F44F004042A280ED06FF02F022878DA
:101A6000A0F1300109290AD809EB890102EB4101F3
:101A700000EB01096D1CF2E757F8049B6D1C2878F8
:101A80006C280FD006DC4C2817D068280DD06A28A7
:101A900014D104E0742810D07A280FD10DE044F45A
:101AA00000140AE044F4801401E044F4401469781E
:101AB000814202D104F580146D1C6D1C2A786E2AB7
:101AC0001FD00CDC632A31D004DC002A8BD0582ACA
:101AD00011D1A3E0642A68D0692A0CD165E0732A89
:101AE0002ED004DC6F2A73D0702A04D19BE0752AB3
:101AF0006FD0782A6ED01046DDE90F129047761C21
:101B000050E1C4F30250022806D0032809D004286B
:101B100001CF09D0066045E101CFF117C0E90061AE
:101B200040E101CF06803DE106703BE117F8040B70
:101B30008DF8000000208DF80100EB46012003E045
:101B400057F804BB4FF0FF3061074FF0000102D49B
:101B50000DE008F10101884649450FDA8045F8DBC0
:101B60001BF808100029F4D108E008F101018846AB
:101B70008142FADB1BF808100029F6D1DDE90F23BA
:101B8000AAEB08008146214600F036F9304400EB0C
:101B9000080604E0DDE90F121BF8010B9047B8F1CD
:101BA0000108F7D221464846F7E00A21C4F3025360
:101BB0004FF0000B0891022B04D001CFC117032B6B
:101BC00009D00AE0FF1D27F00707F7E8020108E047
:101BD00032E01FE020E000B2C117042B01D140B277
:101BE000C117031E71F1000307DA4FF0000CD0EBB0
:101BF0000C006CEB01012D2302E0230504D52B23FF
:101C00008DF82430012303E0E30701D02023F7E718
:101C1000984658E00A2110E010210EE010204FF005
:101C2000000B08900CE010214FF0000B44F004046E
:101C30004FF00809089103E008214FF0000B0891CC
:101C4000C4F30253022B04D001CF0021032B06D092
:101C500006E0FF1D27F00707F7E8020103E080B266
:101C6000042B00D1C0B24FF0000823072BD5702AF7
:101C700007D0DDF820C08CF0100C5CEA0B0C05D00E
:101C80000EE040238DF82430012308E050EA0103E0
:101C900006D030238DF824308DF825200223984675
:101CA000DDF820C08CF0080C5CEA0B0C0BD150EA7C
:101CB000010301D1630706D530238DF824304FF09E
:101CC0000108A9F10109582A04D038A20B9208AAE8
:101CD0000A920BE03AA2F9E75B46089AFEF744FA4B
:101CE0000B9B9B5C0A9A521E0A92137050EA0102E7
:101CF000F2D10A98ADEB000000F1200B600702D58D
:101D000024F4803401E04FF00109D94502DDA9EB4C
:101D10000B0000E0002000EB0B0141440890AAEB0F
:101D2000010AE00306D4DDE90F232146504600F006
:101D300063F806444FF0000908E009A911F809000A
:101D4000DDE90F12904709F10109761CC145F4DB6A
:101D5000E0030CD5DDE90F232146504600F04CF896
:101D6000064404E0DDE90F1230209047761C089904
:101D7000481E08900029F5DC08E00A980A990078C6
:101D8000491C0A91DDE90F129047761CBBF1000156
:101D9000ABF1010BF1DC21465046DDE90F2300F0E9
:101DA00019F806446D1C1BE6092801003031323356
:101DB0003435363738396162636465660000000087
:101DC0003031323334353637383941424344454671
:101DD000000000002DE9F041044600251E4617468C
:101DE000880404D405E039462020B0476D1C641EE9
:101DF000F9D52846BDE8F0812DE9F04104460025DB
:101E00001E469046C80301D5302700E020278804ED
:101E100004D505E041463846B0476D1C641EF9D52F
:101E20002846BDE8F08170B504460D46E0B2FFF7E4
:101E3000B7FA204670BDFEF74AFEFEF7EAFD01E064
:101E4000FEF7B0FFFCE70000FFFFFFFF1032547603
:101E5000EFCDAB89741E0008000000204800000090
:101E6000A4190008BC1E000848000020E010000073
:101E7000B41900080000000000000000000000008D
:101E8000000000000000000000000000000102034C
:101E90000401020304060708090204060800000002
:101EA0000000000000A24A04000000000000000042
:0C1EB000010203040607080900000000FE
:0400000508000131BD
:00000001FF
