:020000040800F2
:1000000060070020CD010008950400085504000891
:100010009104000839030008070A000800000000E6
:1000200000000000000000000000000015060008AD
:100030003D030008000000001D0500082907000816
:10004000E7010008E7010008E7010008E7010008F0
:10005000E7010008E7010008E7010008E7010008E0
:10006000E7010008E7010008E7010008E7010008D0
:10007000E7010008E7010008E7010008E7010008C0
:10008000E7010008E7010008E7010008E7010008B0
:10009000E7010008E7010008E7010008E7010008A0
:1000A000E7010008E7010008E7010008E701000890
:1000B000E70100088D070008E7010008E7010008D4
:1000C000E7010008E7010008E7010008E701000870
:1000D000E7010008E5070008E7010008E70100085C
:1000E000E7010008E7010008E7010008E701000850
:1000F000E7010008E7010008E7010008E701000840
:10010000E7010008E7010008E7010008E70100082F
:10011000E7010008E7010008E7010008E70100081F
:10012000E7010008E7010008E7010008E70100080F
:1001300000F002F800F03AF80AA090E8000C8244BF
:100140008344AAF10107DA4501D100F02FF8AFF29C
:10015000090EBAE80F0013F0010F18BFFB1A43F0A5
:10016000010318477423000094230000103A24BFB1
:1001700078C878C1FAD8520724BF30C830C144BF0C
:1001800004680C607047000000230024002500264E
:10019000103A28BF78C1FBD8520728BF30C148BFEA
:1001A0000B6070471FB51FBD10B510BD00F082F881
:1001B0001146FFF7F7FF00F00BFD00F0B4F803B4B1
:1001C000FFF7F2FF03BC00F0A9FC000009488047DC
:1001D00009480047FEE7FEE7FEE7FEE7FEE7FEE729
:1001E000FEE7FEE7FEE7FEE704480549054A064B41
:1001F000704700002D070008310100086001002051
:1002000060070020600300206003002070470000AA
:100210000FB4044910B503AA029800F015F810BCF9
:100220005DF814FB18000020704770477047704756
:1002300010B500F01BF8006810BD10B5044600F0C2
:1002400015F8046010BD0000074B70B50D467B44E7
:1002500000F015F80446284600F024F810B14FF0DD
:10026000FF3070BD204670BD630900000048704734
:10027000FC00002001694A1C02610878704700B543
:100280008FB0CDE901310021059105497944CDE9CF
:1002900003101146684600F032F80FB000BD0000B0
:1002A000E5FFFFFF007B00F08000704700487047CB
:1002B000FC0000207546FFF7F9FFAE4605006946D1
:1002C000534620F00700854618B020B5FFF78CFF95
:1002D000BDE820404FF000064FF000074FF0000847
:1002E0004FF0000B21F00701AC46ACE8C009ACE8C8
:1002F000C009ACE8C009ACE8C0098D4670472DE9DB
:10030000F04106460024D6E90170F5688046304683
:1003100003E04146B847641C3046A8470028F8D19E
:100320002046BDE8F08110B50446AFF300802046BA
:10033000BDE81040FFF743BF00BFFEE770472DE95F
:10034000F04102460025002600200023002400275B
:1003500091F803C00CF00F0591F803C00CF0100CDD
:10036000BCF1000F03D091F802C04CEA050591F8EA
:1003700000C0BCF1000F31D0146800202BE04FF01A
:10038000010C0CFA00F3B1F800C00CEA03069E421F
:1003900020D183004FF00F0C0CFA03F7BC4305FA91
:1003A00003FC4CEA040491F803C0BCF1280F06D109
:1003B0004FF0010C0CFA00FCC2F814C00AE091F8EE
:1003C00003C0BCF1480F05D14FF0010C0CFA00FC42
:1003D000C2F810C0401C0828D1D31460B1F800C086
:1003E000BCF1FF0F34DD546800202EE000F1080C52
:1003F0004FF0010808FA0CF3B1F800C00CEA03064C
:100400009E4221D183004FF00F0C0CFA03F7BC433E
:1004100005FA03FC4CEA040491F803C0BCF1280F70
:1004200005D100F1080C08FA0CF8C2F8148091F814
:1004300003C0BCF1480F07D100F1080C4FF00108D0
:1004400008FA0CF8C2F81080401C0828CED354607B
:10045000BDE8F08100BFFEE708B510208DF803006D
:1004600003208DF802000121102000F059F810201F
:10047000ADF8000069460548FFF761FF2020ADF8A0
:10048000000069460148FFF75AFF08BD001001400F
:1004900000BFFEE77047000070B5002100230F2267
:1004A000C47804B3154C246804F4E064C4F5E06433
:1004B000210AC1F10403CA40447804FA03F18478A4
:1004C0001440214309010E4C0678A155047804F02C
:1004D0001F050124AC4005786D11AD0005F1E02544
:1004E000C5F8004109E0047804F01F050124AC4080
:1004F000044D0678761145F8264070BD0CED00E0FD
:1005000000E400E080E100E002490143024A11609A
:10051000704700000000FA050CED00E07047000095
:1005200029B1064A92690243044B9A6104E0034AE6
:1005300092698243014B9A617047000000100240AB
:1005400030B500210022002400232D4D6D6805F0F8
:100550000C0121B1042905D0082923D105E0294D3A
:10056000056022E0274D05601FE0254D6D6805F40C
:100570007012234D6D6805F48034022505EB92421C
:100580001CB9214D554305600BE01D4D6D6805F408
:1005900000351DB11C4D5543056002E0194D554312
:1005A000056002E0174D056000BF00BF144D6D6887
:1005B00005F0F0010909154D6B5C0568DD404560EB
:1005C0000F4D6D6805F4E061090A104D6B5C4568DC
:1005D000DD4085600A4D6D6805F46051C90A0B4D18
:1005E0006B5C4568DD40C560054D6D6805F44041B4
:1005F000890B074D6B5CC568B5FBF3F5056130BD34
:100600000010024000127A0000093D001E00002088
:100610002E000020704710B500F002F810BD000059
:100620000CB50020019000903348006840F4803001
:100630003149086000BF3048006800F40030009085
:100640000198401C0190009818B90198B0F5A06F6E
:10065000F1D12948006800F4003010B10120009069
:1006600001E0002000900098012843D12348006851
:1006700040F01000214908600846006820F003009F
:1006800008600846006840F0020008601A484068A8
:10069000194948600846406848600846406840F488
:1006A000806048600846406820F47C104860084636
:1006B000406840F4E81048600846006840F08070E8
:1006C000086000BF0C48006800F000700028F9D0F6
:1006D0000948406820F00300074948600846406820
:1006E00040F00200486000BF0348406800F00C0082
:1006F0000828F9D10CBD0000001002400020024083
:10070000042808D14FF0E021096941F004014FF0BD
:10071000E022116107E04FF0E021096921F00401B6
:100720004FF0E022116170477047000010B5134888
:10073000006840F00100114908600846406810490F
:1007400008400E494860084600680E4908400B49B9
:1007500008600846006820F4802008600846406869
:1007600020F4FE0048604FF41F008860FFF753FF3D
:100770004FF000600449086010BD00000010024006
:100780000000FFF8FFFFF6FE08ED00E010B50121C4
:10079000084800F016F858B10121064800F00EF89C
:1007A0000548006808B9012000E0002002490860FF
:1007B00010BD00000004004090012242CA430282A2
:1007C000704730B50246002000230024158A05EA50
:1007D0000103958905EA010413B10CB1012000E081
:1007E000002030BD10B540F225511D4800F04AF8F8
:1007F00010B31B4800F002F9C4B21A48008800F494
:100800000040C8B91748008800F4804060B10A2C45
:1008100003D000201349088020E01248008840F4EB
:1008200000401049088019E00D2C06D10D480088C1
:1008300040F480400B49088010E00A480088C0F36B
:100840000D0009490C5407480088401C05490880E0
:1008500008460088C72801DD0020088010BD000080
:10086000003801401C0000203400002021B18289A2
:1008700042F40052828104E082894DF6FF731A40EF
:100880008281704770B502460024002300250020B5
:1008900040F66A16B14200D100BFC1F3421501F023
:1008A0001F03012606FA03F3012D02D19689334076
:1008B00006E0022D02D1168A334001E0968A3340C9
:1008C0000C12012606FA04F41688344013B10CB158
:1008D000012000E0002070BDF0B503460024002692
:1008E0000025002040F66A17B94200D100BF184623
:1008F000C1F3421401F01F06012707FA06F5012C87
:1009000001D10C3004E0022C01D1103000E0143091
:100910001AB107682F43076002E00768AF4307601A
:10092000F0BD00002DE9F04786B005460E460024D4
:10093000A24600BFA1460027B08900B100BF2F46E4
:100940002C8A4CF6FF700440F08804432C82AC895A
:100950004EF6F3100440B08831890843718908438A
:100960000443AC81AC8A4FF6FF400440B089044395
:10097000AC8201A8FFF7E4FD1F48874202D1DDF8F1
:1009800010A001E0DDF80CA0A88900F4004040B1FF
:100990000AEBCA0000EB0A1031684900B0FBF1F81D
:1009A00007E00AEBCA0000EB0A1031688900B0FBCF
:1009B000F1F86420B8FBF0F004012009642101FB88
:1009C0001089A88900F4004040B1322000EBC90032
:1009D000B0FBF1F000F00700044308E0322000EB28
:1009E00009106421B0FBF1F000F00F0004432C81EA
:1009F00006B0BDE8F0870000003801400146888855
:100A0000C0F30800704700BFFEE7490050EAC1206C
:100A100018BF04204A0D18BF40F0010040F2FF72D9
:100A2000B2EB515F08BF40F00200012808BF05206B
:100A300070472DE9F0414F1E00EBC7010446D1E994
:100A4000000115461E4637F006020DD02A463346F1
:100A500001F072F97F1E04EBC703D3E9002300F015
:100A6000C3FE37F00602F1D1022F25D0042F13D098
:100A7000062F18BFBDE8F0812A46334601F05CF925
:100A8000D4E90A2300F0B0FE2A46334601F054F9B7
:100A9000D4E9082300F0A8FE2A46334601F04CF9B9
:100AA000D4E9062300F0A0FE2A46334601F044F9BB
:100AB000D4E9042300F098FE2A46334601F03CF9BD
:100AC000D4E9022300F090FE2A46334601F034F9BF
:100AD000D4E90023BDE8F04100F086BE00221346B1
:100AE0001046014900F03CBF0000F03F00F07CBE22
:100AF000002213461046114600F032BF40F2013288
:100B000000204FF0E04101F059BC0000024A0020F3
:100B1000110701F053BC000001FDFFFF014600BFBB
:100B20007047000010B56FF00400FFF7E9FD0A48B8
:100B300000680A49B0FBF1F00949087008460078DE
:100B400000EB4001C1EBC0104FF6FF7101EAC0009D
:100B50000449088010BD00000000002000127A0047
:100B600014000020160000200146114A12884A4352
:100B70004FF0E0235A6100229A611A46126942F04E
:100B800001021A6100BF4FF0E022106900F001027B
:100B90001AB100F48032002AF5D04FF0E022126939
:100BA00022F001024FF0E0231A6100229A6170479F
:100BB0001600002000BF054A128802F04002002AF9
:100BC000F9D0C2B2014B1B1D1A807047003801409A
:100BD0008AB04FF0000A4FF4A060FFF795FCFFF7D2
:100BE000A1FF4FF4E13000F0AFFDFFF735FC76E0F8
:100BF0003B48008800F4004000284ED0384890F868
:100C0000009038A0FFF704FB4FF0010B00242CE00C
:100C10003948005D0890089801F03EF805460E46F8
:100C2000A9EB0401481E01F020F807463A460B469E
:100C30000020324900F076F82A463346CDE900011B
:100C400001F07AF8CDE90401584601F025F8CDE924
:100C50000201DDE9042300F0C7FDCDE9060100F043
:100C6000D7FF00F0FF0B601CC4B24C45D0DB24481A
:100C7000A0F800B023A0FFF7CBFA002018490880A5
:100C80002148006808B9012000E000201E490860E2
:100C90004FF4FA70FFF768FF21E00AF101001FFA34
:100CA00080FA41F288309AFBF0F100FB11A010B9F4
:100CB00016A0FFF7ADFA4FF4FA709AFBF0F100FBC3
:100CC00011A048B91048001F006808B9012000E0D1
:100CD00000200D49091F08600120FFF745FF87E745
:100CE0001C0000200AC4FAB7A2CBCDB5C4CFFBCFFD
:100CF000A2CEAAA3BA0A00003400002000002440BB
:100D0000043801400A00000094012242C7EBCAE403
:100D1000C8EBCFEBD2AAB7A2CBCDB5C4CAFDBEDD1E
:100D2000A3BA0A002DE9F04D1D460C4698B01746AF
:100D300021F0004123F00043002814BF4FF0010CC4
:100D40004FF0000C0CEB440CFE4A0CEB02064FEA91
:100D5000620C66452BD33E0018BF012606EB450604
:100D60001644F94A964222D3F84A53EA070C02D0B5
:100D7000944205D148B918B000201146BDE8F08D65
:100D8000002808BF4FF0000C01D04FF0010C0CEB15
:100D9000440212F5001F0AD8002F14BF4FF0010CB7
:100DA0004FF0000C0CEB450212F5001F07D918B0EC
:100DB0003A462B462146BDE8F04DFFF797BE00228C
:100DC000DFF88CA3002CB8BF534526DADFF884C3C4
:100DD0006345A8BF022220DADFF870C39C451CDC03
:100DE000DFF874C30CEB235CBCF1140F08DDCCF10D
:100DF000340627FA06FC0CFA06F6BE420DD108E0CE
:100E00005FB9CCF1140623FA06FC0CFA06F69E42F2
:100E100003D10CF00102C2F1020251EA000C19D117
:100E2000002D17DA002C18BF022A01D0012A07D0A2
:100E30000220FFF702FA18B0BDE8F04DFFF74EBEF2
:100E40000220FFF7FAF9FFF749FE18B081F00041E0
:100E5000BDE8F08DB7F1000C6CD1534525D104F1FC
:100E6000804212F5801201BF00280020B74918B057
:100E700008BFBDE8F08DB548884207DC002DA1BF52
:100E80006046294618B0BDE8F08D07E0281E05DA57
:100E900080F0004118B06046BDE8F08DAF4979445C
:100EA000D1E9000118B0BDE8F08DDFF8A0C26345BC
:100EB00025D1002D1FDA19B1514512D1D8B909E059
:100EC000002840F0EC82A24A214618B062F31E01CD
:100ED000BDE8F08D0020214618B060F31E01BDE88A
:100EE000F08D08DA18B02346BDE8F04D0246002028
:100EF000614600F035BD18B02146BDE8F08D514582
:100F000018DAB5F1804F0DD0A5F1005CBCF1FF5CA3
:100F100010D1B4F1000C0DDB18B06146BDE8F04D06
:100F200000F0ECBB234618B00246BDE8F04D194670
:100F300000F002BF060024F0004C3BD1D9B151456E
:100F400033D1002C06DD002DA1BF0020514618B082
:100F5000BDE8F08D002C01DD002D1BDB002C13DA29
:100F6000002D11DB012A4FF0000014BF78497C49A5
:100F700018B0BDE8F08D022A18BF002C0AD0012A53
:100F800008D1002C06DA0AE0002CB8BF002D11DAD7
:100F9000012A04D0002018B00146BDE8F08D18B039
:100FA00000204FF00041BDE8F08DA1F14050B0F1BC
:100FB0007F601AD0012000EBE47050EA020421D0D7
:100FC000624C521E4FF0000B104304BF4FF0000B59
:100FD000644C654883427CDD644A654893421FDD6A
:100FE000884217DB002D25DB37E0002C00DA4AB100
:100FF000022A0CBF01204FF0FF3018B0BDE8F04DC1
:1010000000F033BE0120FFF718F918B0BDE8F04D2D
:10101000FFF76EBD4D4A8A4202DC002D0ADC1CE05F
:10102000814202DA002D18DA04E0484B994220DDB3
:10103000002D12DD0220FFF700F9FFF75FFD0546E6
:101040000E46002253465846214600F075FE18B061
:1010500066F31E012846BDE8F08D0220FFF7EDF88B
:10106000FFF754FD0A46214618B062F31E01BDE8A1
:10107000F08D00223046614601F084F880460E462D
:101080006FF0010201F09AF94FF05532394B00F040
:1010900087FF4246334600F04FFE0022364B00F0F9
:1010A0007FFF82464246334604911046194600F0BF
:1010B00043FE5246049B00F03FFE8A4600904FF0EC
:1010C000C0422E4B4046314600F036FE2C4A2B4B98
:1010D00000E027E0CDE906015146009800F02CFE23
:1010E00082460191274A284B4046314600F024FEB3
:1010F0005246019B01F046F882460B460246059196
:10110000DDE9060100F070FBDDE9062300268846D4
:10111000304601F037F85246059B00F041FF024689
:1011200000F07EB90020B1F5801F07DA3522304685
:10113000614601F043F906466FF0340000EB2150A0
:1011400024E00000FFFF1F00FFFF0F000000F03F42
:101150000000F07F0000404301FCFFFF2E1600005E
:101160000000F0FF0000F0BF0000E0410000F0438D
:10117000FFFFEF3F5555D53F0000E03F4715F73FD4
:10118000FE822B6544DF5DF80BAE543EA0F2FF30CB
:101190000190C1F3130040F07F6141F04051029192
:1011A000FE498842D8BF002004DDFD498142C8BF06
:1011B000012001DD0D9008E000200D900198401CF9
:1011C00001900298A0F5801002900299F5487844A9
:1011D0000B910D9900EBC100D0E900230F9330462D
:1011E0000A920B9900F0CEFFCDE90601DDE90A2154
:1011F00030460F9B00F0F8FA02460B460020EA4901
:1012000000F0AEFB059102460B460090DDE90601B9
:1012100000F092FD1490E5488A464FF000087844AB
:101220000299006812904FF0005040EA61010D9859
:101230000F9B01EB804000F5002109910A9A12985A
:1012400000F0A0FF32460B9B00F0AAFE4246534638
:1012500000F072FD0646029140465146099B129AE3
:1012600000F06AFDDDE9062300F09AFE3246029B9B
:1012700000F088FF059B009A00F05EFD0091149A33
:10128000049053461046194600F056FD06460246A5
:10129000C7480B46029106217844FFF7CAFBCDE907
:1012A0000510029B32461046194600F045FDDDE967
:1012B000053200F041FD0591064653464046194669
:1012C000149A00F091FA009B049A00F035FD324622
:1012D000059B00F089FACDE90510424653461046B9
:1012E000194600F029FD0022B24B02910A9000F04D
:1012F0007BFADDE9053200F077FA0E464246AD4B47
:10130000404600F03FFF029B0A9A00F03BFFDDE9F8
:10131000053200F045FE424602910A9033461046DF
:10132000514600F009FDCDE906015346149A029991
:101330000A9800F001FD8A46029033464246009921
:10134000049800F0F9FC5346029A00F04DFA8246E8
:101350000B4602460591DDE9060100F045FADDE99C
:10136000062300208846064600F00CFF5246059BE7
:1013700000F016FE824609914FF060428E4B3046D7
:10138000414600F0D9FC049006918C4A8A4B5046A5
:10139000099900F0D1FC82460291894A894B304676
:1013A000414600F0C9FC5246029B00F01DFA864BF4
:1013B0007B440D9A03EBC203D3E9002300F014FA37
:1013C0000E900791019800F050FC0591DDE906139D
:1013D00082460E9A049800F007FA7C4A7A440D9BE4
:1013E00002EBC303D3E900230093029200F0FCF95F
:1013F0005246059B00F0F8F90026884652463046D2
:10140000059B00F0BFFE009B029A00F0BBFE069B0E
:10141000049A00F0B7FE079B0E9A00F0C1FD024649
:1014200000200B4602903846294600F085FC824693
:1014300001912B4638461946029A00F0A3FE324627
:10144000434600F079FC5246019B00F0CDF9074677
:101450008A46324643462946029800F06DFC05460E
:101460000E463A46534600F0BFF9594A8846914223
:1014700021DBA8EB020353EA000210D12A463346CF
:1014800000F080FECDE90401524A534B38465146E4
:1014900000F0AAF9DDE9042300F04CFD21D202207E
:1014A000FEF7CBFEFFF72AFB0A46214618B062F38F
:1014B0001E01BDE8F08D494B28F000429A4210D33E
:1014C000474A08EB020353EA00027FF4C6AD2A46FE
:1014D000334600F057FE3A46534600F02BFD7FF6A8
:1014E000BCAD0022019228F000403E493E4A01EB8B
:1014F0002051824223DA481C4FF4801121FA00F077
:1015000040443A4AC0F30A517A44394BA1F2FF31C0
:10151000CB4020EA0303C0F3130040F48010C1F174
:101520001401C84012680190B8F1000FBCBF4042DE
:1015300001902846314600F025FE05460E462A4613
:1015400033463846514600F04FF94FF00008424606
:10155000284B4046059100F0EFFBCDE90601264AF5
:10156000264B4046059900F0E7FB009102902A4681
:1015700033464046059900F005FE3A46534600F0D2
:101580000FFD1F4A1F4B00F0D7FB009B029A00F093
:101590002BF90746884602460B4635E08E98030035
:1015A0007AB60B00761200000000F03FAE12000089
:1015B000DC1100000000084009C7EE3FFD033ADCE3
:1015C000F5015B14E02F3EBEB4100000781000005F
:1015D00000009040FE822B654715973C00CC904060
:1015E00000346F3F01FCFFFF0000E03FC40F00002C
:1015F000FFFF0F00432EE63F396CA80C615C20BE54
:10160000EF39FAFE422EE63FDDE9060100F0ECF884
:10161000DDE9062305460E4600F0B4FD3A46434692
:1016200000F0BEFC0F462A4633460090104619468D
:1016300000F082FB824602462E4888460B46052172
:101640007844FFF7F6F95246434600F075FB2A4608
:10165000334600F0A5FC80468A463B462846314684
:10166000009A00F069FB3B46009A00F0BDF8069135
:10167000009000224FF080434046514600F082FD2A
:101680000F460C90424653462846314600F054FB24
:101690003B460C9A00F064F9069B009A00F072FD3C
:1016A0002A46334600F06EFD0022134B00F078FC12
:1016B000054601980E4601EB00510815002810DC84
:1016C00028463146019A00F079FEFFF79EF904287A
:1016D00008BFFFF71BFA28463146019A00F06EFE5C
:1016E00005460B4618B02A4658462146BDE8F04D3F
:1016F00000F022BB640E00000000F03F2DE9F04135
:1017000006460F4600F058FC041E0D4618BF012087
:10171000284320F00040C0F17F6000F1E040C00F9E
:101720000ED0301C18BF0120384320F00040C0F11B
:101730007F6000F1E040C00F04BF0120FEF77DFD97
:1017400020462946BDE8F08110B586B00446012147
:1017500044F20400FEF7E4FE4FF40070ADF814000C
:1017600003208DF8160018208DF8170005A91C48D5
:10177000FEF7E5FD4FF48060ADF8140004208DF80D
:10178000170005A91648FEF7DAFD25208DF80000A0
:1017900003208DF801008DF8020001208DF8030070
:1017A0006846FEF779FE01940020ADF80800ADF818
:1017B0000A00ADF80C00ADF810000C20ADF80E00DA
:1017C00001A90848FFF7AEF8012240F2255105486B
:1017D000FFF782F801210348FFF748F806B010BD73
:1017E000000801400038014010B591EA030F48BFDE
:1017F00083F0004300F1CE84841A71EB030C05D210
:10180000121943EB0C03001B61EB0C01DFF824E120
:101810004FEA1154A4EB135C1EEA430F18BF9EEA73
:10182000445F73D023EA0E03DCF1200E21EA045159
:1018300043F4801332D322FA0CFE10EB0E0023FA8D
:101840000CFE41EB0E01CCF1200E03FA0EFE10EB64
:101850000E0051F10001B1F5801FCCF1200E32D203
:1018600001EB045112FA0EF2BDE8104058BF704768
:10187000401C38BF5FEA420218BF7047002814BFFF
:1018800020F0010041F100014FEA410313F5001F70
:1018900038BF7047A1F1C04100F046BB012A43EBBD
:1018A0000302ACF1200CDCF11F0E32BF4FF0000E32
:1018B00023FA0CF310EB030041EB0451B4EB115F7E
:1018C000D0D0A1EB045101F5801149085FEA300046
:1018D00001EB04510ED350F1000038BF12FA0EFE96
:1018E00008D1BDE81040C9E7401C38BF5FEA42029A
:1018F000CAD1C3E7BDE810404FEA410313F5001F0A
:1019000038BF7047A1F1C04100F00EBB9EEA445FB2
:1019100008D011EA5E0FBDE8104004BF01F000419D
:1019200000207047BDE8104070B500F0AFFA00BF6E
:1019300064FBBE3E0000E0FF02494FF0000000F0F3
:101940000BBD00BF0000F87F491058BFC1F14041F6
:101950005B1058BFC3F140438B42EFF300807047E8
:101960002DE9C04130B4DFF8A0C23CEA111418BF21
:101970003CEA131400F0EC8081EA03051CEA111420
:1019800044EAD57418BF1CEA131500F0C780A4EB15
:1019900005044FF0004545EAC12145EAC32341EA69
:1019A000505143EA525304F17F74994204F50034D4
:1019B0004FEAC0204FEAC22208BF904200F09C804C
:1019C0004FEA13650FF24016765D4FEA134506FBAA
:1019D00005F7C7F1807706FB07F74FEAD737A7FB74
:1019E00003687642C8F58038A7FB06CE38BFA8F159
:1019F000010807FB08E64FF0000EA6FB028CE6FB91
:101A000003CEDCF1000CCEF1004E38BFAEF1010E7A
:101A1000A6FB0C584FF000074FF00005E6FB0E87C1
:101A2000A1FB08C6A0FB07CE16EB0E0645F100058C
:101A3000E1FB076515F1E04E7EBFA4F580345FEA57
:101A400046066D4116F1800745F100054FEA17275C
:101A50004FEA066647EA0567A6F1DE46B6F1805F03
:101A60004FEA15251FD9384624F0010C05EBC47147
:101A7000BCF1FE6F01EB0C1102D8F0BCBDE8008197
:101A800024425CBF01F5801E9EEAC47F02D4F0BCF4
:101A9000BDE80081244238D4F0BCA1F1C041BDE8CA
:101AA000004100F041BA4FEAD22242EA43524FEAE3
:101AB000D323A7FB02864FEAD02040EA415007FB20
:101AC00003661EEA0E0F4FEAD12105FB026658BFDE
:101AD000A6EB0056B6EB00564FEA520E4EEAC37E16
:101AE00018EB0E0E56EB530EBDD518EB02085E41F7
:101AF0007F1C55F10005B6E74FF480154FF0000745
:101B00004FF000064FF00008ADE7F0BC4FF00000CA
:101B100001F1C04101F00041BDE8008111EA0C1F54
:101B20000CEA131500D00CE013EA0C1F00F025801E
:101B30004FF00000F0BC81EA030101F00041BDE874
:101B40000081F0BCBDE8004181EA030100F0ECB97E
:101B5000F0BCBDE8004170B500F098F9097EFC3E8C
:101B600000F007B881EA03014FF0000001F00041E6
:101B7000704781EA030100F0D7B9F0BCBDE800412D
:101B80004FF0000021497047FFFDFBF9F7F5F4F233
:101B9000F0EEEDEBE9E8E6E4E3E1E0DEDDDBDAD808
:101BA000D7D5D4D3D1D0CFCDCCCBCAC8C7C6C5C466
:101BB000C2C1C0BFBEBDBCBBBAB9B8B7B6B5B4B37D
:101BC000B2B1B0AFAEADACABAAA9A8A8A7A6A5A468
:101BD000A3A3A2A1A09F9F9E9D9C9C9B9A9999982C
:101BE0009797969595949393929191908F8F8E8ECF
:101BF0008D8C8C8B8B8A898988888787868585845C
:101C000084838382828181800000FF070000F87F47
:101C10004FEA1153A3F58063D3F11E03A8BFD3F19C
:101C2000200C08DB4FF0004242EAC12252EA505237
:101C300032FA03F0704709420BD4102BC4BF0020C6
:101C4000704703F5787CBCF1FF3F05D04FF0FF30C3
:101C500070474FF00000704770B500F017F900BFF3
:101C60004992248000207047F0E710F0004248BFFE
:101C70004042B0FA80F310FA03F10AD0C3F11D0319
:101C800003F580634FEA415002EB035202EBD1218E
:101C900070474FF000007047B0FA80F310FA03F17C
:101CA0000AD0C3F11D0303F580634FEA41504FEAA8
:101CB000035202EBD12170474FF000007047000043
:101CC00051EA030C17D41CF5801F58BFBCF5801FC8
:101CD00000F10680994218BF704708BF90427047D4
:101CE00007D711F5801F58BF13F5801F19D49942EB
:101CF0007047894270471CF5801F08D5BCF5801FCE
:101D0000F7D58B4218BF704708BF824270474FF427
:101D1000001C1CEB410F38BF1CEB430F01D28B4260
:101D2000704770B500F0B2F8922449004FF00051AE
:101D30004FF08053FFF708BEDFF848C170B51CEACA
:101D4000111E1EBF1CEA13159EEA0C0F95EA0C0F1C
:101D500000F06F8081EA030423EA4C134EEAD47E3C
:101D600021EA4C1141F4801143F48013AE44A1FBED
:101D7000024CA0FB0365AEF17F7E361955EB0C05D6
:101D8000A1FB034C4CF10003A0FB021C16EB0C065C
:101D9000654153F10003094218BF46F0010613F4F0
:101DA000007F0BD14FEA03314FEA0530340341EA9B
:101DB000155140EA16506FF003020AE04FEAC321C2
:101DC0004FEAC520F40241EA555140EA56506FF0FF
:101DD000020202EB2E4201EB025585EACE710AD0D7
:101DE0005FEA440C18BF24F0004450F1000041F1B8
:101DF000000120EAD47040F2FE7C624500D270BD42
:101E0000A84214BF4FF080444FF04044002E08BF5A
:101E10000024BEF1806FA8BFA1F1C041BDE87040B1
:101E200080F282804FF0000001F1C04101F00041DA
:101E300070479EEA0C0F0CEA131518BF95EA0C0FB9
:101E400006D04FF0000081EA030E0EF0004170BD95
:101E500000F01CF88900013E00F007B800F009B856
:101E60004FEA430C5FEA5C5C08D081EA030100F0B2
:101E70005BB84FEA410C5FEA5C5CF6D14FF00000C2
:101E8000014970470000FF070000F87F0EF1020EC5
:101E90002EF0030E5EF8046B364205D4012A43EBA4
:101EA000030515F5001F12D8012841EB010C1CF5A4
:101EB000001F0CD80ED14FEAD17C15F5001F0CEB9A
:101EC0004C0C0CF1020C08BF4CEBD37C04E04FF03F
:101ED000080C01E04FEAD37C0CEB4C0526FA05F622
:101EE00006F00706B6F1040C06D20EEB860CBDE830
:101EF00070404CF0010C6047DFE80CF0090B020267
:101F00004FF000414FF00000A1F5002170BD1946CF
:101F10001046012851EB010418BFD4F5001484BF0A
:101F2000002001F0004170BD0808A0F500114FEA43
:101F30003101704753EA010C17D41CF5801F58BFBC
:101F4000BCF5801F00F106808B4218BF704708BFA8
:101F50008242704707D713F5801F58BF11F5801FC5
:101F600019D48B4270479B4270471CF5801F08D5DF
:101F7000BCF5801FF7D5994218BF704708BF904243
:101F800070474FF4001C1CEB430F38BF1CEB410F94
:101F900001D2994270470FB40CBC03BCFFF7C1BE1D
:101FA00091EA030F10B581F000413FF525AC83F0B5
:101FB000004300F0EFB800002DE9F04101F5801C6E
:101FC000BCF5001FC0F2C3804FEA115C21EA0C513E
:101FD0000CF1FD0C41F480115FEA5C0C0CF5C07C47
:101FE00001D3400049413DA4890241EA9051870252
:101FF0008E0E0A0CA45D04FB04F602FB06F6C6F185
:102000004046A4FB0662F60D46EA422606FB06F4AD
:10201000A4FB01235242C3F1404338BF5B1EA6FB21
:1020200002420024E6FB0324D20B42EA4446A6FB0C
:102030000623A1FB02E2A3FB07E4A4184FF0000271
:1020400052F10002E3FB01426442C2F1404E38BF4C
:10205000AEF1010EA6FB04234FF00002E6FB0E32A8
:10206000A2FB03464FF00004B61954F10004E2FB52
:102070000264A1FB06E6A4FB07E816EB08064FF096
:10208000000858F10008E4FB01687642C8F14058A6
:1020900038BFA8F10108A2FB06E4A3FB08E52D194F
:1020A0004FF0000454F10004E2FB0854A1FB05E6E4
:1020B000A7FB04E818EB06084FF0000656F10006EF
:1020C000E1FB048618F1200556F10006A809A8F1E5
:1020D0001B08B10908F03F08B8F10A0F40EA866012
:1020E0001CD901EB0C51BDE8F08100BFFCF5EEE816
:1020F000E2DDD8D3CFCBC7C3C0BDB9B6B4B1AEACA7
:10210000A9A7A5A3A19F9D9B9A9896959392908F1E
:102110008D8C8B898887868584838281A0FB00686B
:1021200000FB01F208EB4208B8EB872807D534180A
:1021300058EB0104D5D5401C51F10001D1E7341A08
:1021400078EB0104CDD4401E71F10001C9E75FEACC
:102150004C0C5FEA9C5C0DD105D34FF0000001F000
:102160000041BDE8F081BDE8F04170B5FFF78EFE9B
:102170006DDBFFBEBDE8F0414FF000000049704745
:102180000000F87F10B591EA030F48BF83F00043C9
:102190003FF532AB841A71EB030C07D212198CF0A5
:1021A000004C43EB0C03001B61EB0C01DFF8A4E1D6
:1021B0004FEA1154A4EB135C1EEA430F18BF9EEACA
:1021C000445F00F0B08023EA6E03524221EA0451DA
:1021D000C3EB6E0338BF5B1EDCF1200E25D322FA61
:1021E0000CFE10EB0E0043FA0CFE41EB0E01CCF19D
:1021F000200E03FA0EFE10EB0E0051F10001CCF19F
:10220000200E29D412FA0EF201EB0451BDE8104061
:1022100058BF7047401C1CBFB2F1004F70470028E8
:102220000CBF491C20F00100704712EB020E43EB7B
:10223000030218BF4FF0010E4EEA4202ACF1200C2F
:10224000DCF11E0E54D943FA0CFE10EB0E0051F1D6
:10225000FF31CCF11E0ED5D50EF1010E12FA0EFE95
:10226000404141EB010101EB445C5FEA5C5C10D949
:1022700010EBDE7001EB045138BFBEF1004FBDE83A
:10228000104018BF704700280CBF491C20F0010007
:10229000704730D24FEAD42C11F5001124F40064B9
:1022A0001BD0B1FA81F20B3AA41AA41ED2F120037A
:1022B000914030FA03F31943904001EBCC71002CAC
:1022C00001EB0451BDE81040A8BF704701F1C041C7
:1022D0004FF0000001F000417047B0FA80F310FAAF
:1022E00003F100D110BDE41A173C4805C90AE4E720
:1022F00001EB045110BD491001EB0451BDE8104041
:102300004FEA300002E04FF0000170474A0008BF7A
:102310000042F8D0B2F5001F28BF704701F000411D
:102320004FF0000070479EEA445F07D011EA5E0F4D
:10233000BDE8104004BF002100207047BDE81040F8
:1023400070B5FFF7A3FD00BF40DFF63E83F000410C
:10235000104670470000E0FF0CF00F03092B08BF88
:10236000082000F059800A2B0BD0082B18BF7047AB
:1023700008BF1CF0400F0AD04FF000004FF00001E2
:1023800070471CF0400F18BF4FF0004070471CF022
:10239000100F08D020F0704300F07F4242EAD301D2
:1023A0004FEA4370704700F0604021F07F4242EAFC
:1023B000000201F07F4040EA727070474FF0FF0C5E
:1023C0004CF4E06C1CEA11531CBF9CEA030C9445CE
:1023D000C2BFDA4201EB02517047002B0DD0BCF1B5
:1023E000000F0FD0002A01F00041A4BF41F0E041EE
:1023F00041F07F614FF00000704701F000414FF065
:102400000000704750EA01334FF09B0C18BF4CF0AE
:10241000806C7FF491AA70471CF4801F11D01CF4CB
:10242000E02F03D06FEACC31490070474FF04050A5
:10243000EFF3008222F0704242EA000282F3008849
:1024400070474FF000007047000000000000F03FB0
:10245000000000000000F83F000000000000000045
:102460000000004003B8E23F000000000000000050
:1024700006D0CF43EBFD4C3E033333333333E33FDE
:10248000FFAB6FDBB66DDB3F4D268F515555D53F0A
:1024900001411DA96074D13F65DBC9934A86CD3FD8
:1024A000EF4E454A287ECA3F3E5555555555C53FC6
:1024B00093BDBE166CC166BF2CDE25AF6A56113FB8
:1024C000F16BD2C541BDBBBED0A4BE726937663EBA
:1024D0000000000000000000F824000800000020B8
:1024E000340000006C0100082C2500083400002096
:1024F0002C0700008801000800A24A040000000028
:1025000000000000010203040607080900000000A3
:1025100000000000000000000000010203040102AE
:0C25200003040607080902040608000076
:0400000508000131BD
:00000001FF
