:020000040800F2
:10000000780C002045010008691300086D100008F5
:100010006513000869030008A3240008000000001D
:10002000000000000000000000000000D51A0008D9
:10003000DB0D00080000000065150008251D000804
:100040005F0100085F0100085F0100085F01000810
:100050005F0100085F0100085F0100085F01000800
:100060005F0100085F0100085F0100085F010008F0
:100070005F0100085F0100085F0100085F010008E0
:100080005F0100085F0100085F0100085F010008D0
:100090005F0100085F0100085F0100085F010008C0
:1000A0005F0100085F0100085F0100085F010008B0
:1000B0008D1D0008C91D00085F0100085F010008D0
:1000C0005F0100085F0100085F0100085F01000890
:1000D0005F010008412100085F0100085F0100087E
:1000E0005F0100085F0100085F0100085F01000870
:1000F0005F0100085F0100085F0100085F01000860
:100100005F0100085F010008F11D00085F010008A1
:100110005F0100085F0100085F0100085F0100083F
:100120005F0100085F010008150B00085F0100086F
:10013000DFF80CD000F018F80048004769250008E7
:10014000780C00200648804706480047FEE7FEE797
:10015000FEE7FEE7FEE7FEE7FEE7FEE7FEE7FEE777
:100160002D1D000831010008064C074D06E0E0682F
:1001700040F0010394E8070098471034AC42F6D3EE
:10018000FFF7DAFFA8250008C825000870B58C180D
:1001900010F8015B15F0070301D110F8013B2A119B
:1001A00006D110F8012B03E010F8016B01F8016B88
:1001B0005B1EF9D12B0705D40023521E0DD401F884
:1001C000013BFAE710F8013BCB1A921C03E013F84D
:1001D000015B01F8015B521EF9D5A142D8D3002082
:1001E00070BD21B1826842F00102826003E0826842
:1001F00022F001028260704721B1826842F480726D
:10020000826003E0826822F480728260704721B1CC
:10021000826842F48012826003E0826822F48012D5
:1002200082607047014600208A6802F004020AB129
:10023000012000E000207047014600208A6802F09B
:1002400008020AB1012000E00020704730B50246E4
:100250000020002350680F4C20400D790C6844EAC0
:1002600005242043506090680B4C2040D1E9025493
:100270002C434D7944EA450420439060D06A20F431
:1002800070000C7C641EE4B2234340EA0350D06249
:1002900030BD0000FFFEF0FFFDF7F1FFF0B50446B2
:1002A0000D4600200021092D11DDE068A5F10A06A8
:1002B00006EB4607072606FA07F18843A5F10A066A
:1002C00006EB460603FA06F10843E0600CE02069FD
:1002D00005EB4507072606FA07F1884305EB4506B7
:1002E00003FA06F108432061072A0FDA606B561EF5
:1002F00006EB86071F2606FA07F18843561E06EB13
:10030000860605FA06F10843606322E00D2A0FDA3B
:10031000206BD61F06EB86071F2606FA07F18843D7
:10032000D61F06EB860605FA06F10843206310E0A7
:10033000E06AA2F10D0606EB86071F2606FA07F112
:100340008843A2F10D0606EB860605FA06F108437E
:10035000E062F0BD816841F008018160704781680A
:1003600041F004018160704700BFFEE700200149B1
:10037000087070471B00002000200149087070477A
:100380001A00002000B587B04FF4004001F0E0F9FA
:100390000121480201F018FA0121042001F014FAA9
:1003A0000220ADF8180000208DF81B0006A91E4899
:1003B00000F094FD0020019001208DF8080000203D
:1003C0008DF809004FF400200390002004900120D4
:1003D0008DF8140001A91548FFF738FF0723012203
:1003E00011461248FFF75AFF01211048FFF704FF9A
:1003F00001210E48FFF70BFF01210C48FFF7F1FE2A
:100400000A48FFF7A7FF00BF0848FFF715FF0028BD
:10041000FAD10648FFF7A3FF00BF0448FFF702FF29
:100420000028FAD107B000BD0008014000240140B7
:1004300000B585B00121042001F0C6F9012148076B
:1004400001F0A2F91020ADF8100003208DF8120081
:1004500000208DF8130004A90C4800F03FFD2C206B
:1004600000900020019002900390694600F028FB64
:100470000121002000F00EFB0021084600F03AFBAD
:100480000121002000F0F2FA05B000BD0008014093
:1004900000B58BB00121084601F066F9114800F063
:1004A00073FB114800901148019000200290012038
:1004B000039000200490802005904000069080006A
:1004C000079020200890C001099000200A906946FA
:1004D000044800F01EFC0121024800F049FB0BB06B
:1004E00000BD0000080002404C2401402200002012
:1004F00003B58DB00121022001F036F91A4800F051
:1005000043FB1A4802900D9803900E980590102016
:100510000490002006908020079040000890800002
:10052000099020200A9000020B9000200C9002A954
:100530000D4800F0EEFB3A208DF8040000208DF805
:1005400005008DF8060001208DF8070001A800F0D5
:1005500019FF01220221044800F0D2FB01210248C8
:1005600000F006FB0FB000BD3004024008740040EC
:1005700008B50121042001F027F90121102001F024
:1005800023F90220ADF8000001208DF80200482078
:100590008DF8030069460D4800F0A0FC0420ADF87A
:1005A000000048208DF803006946084800F096FCDA
:1005B0000120ADF800008DF8020048208DF80300FE
:1005C0006946034800F08AFC08BD000000100140A5
:1005D0000008014008B50121102001F0F5F81020B5
:1005E000ADF8000003208DF8020010208DF8030004
:1005F00069460D4800F072FC012210210A4800F003
:100600000EFD2020ADF8000003208DF80200102020
:100610008DF803006946044800F060FC00222021A8
:10062000014800F0FCFC08BD0010014010B54FF47B
:10063000A06000F0DFFE10BD08B50121082001F028
:10064000C3F80121102001F0BFF84FF40050ADF8BD
:10065000000010208DF8030003208DF80200694689
:10066000294800F03BFC4FF40051274800F0D5FC2E
:100670004FF40040ADF8000010208DF80300032077
:100680008DF802006946204800F028FC4FF4004134
:100690001D4800F0C2FC4FF48040ADF8000010206F
:1006A0008DF8030003208DF802006946164800F01B
:1006B00015FC4FF48041144800F0AFFC4FF480501B
:1006C000ADF8000010208DF8030003208DF8020023
:1006D00069460D4800F002FC4FF480510A4800F0D2
:1006E0009CFC0820ADF8000010208DF803000320CA
:1006F0008DF802006946054800F0F0FB0821034828
:1007000000F08BFC08BD0000000C0140001001400F
:1007100010B50021AE2000F0B5FE0021D52000F07C
:10072000B1FE0021502000F0ADFE0021A82000F015
:10073000A9FE00213F2000F0A5FE0021D32000F0FB
:10074000A1FE0021084600F09DFE0021402000F09F
:1007500099FE00218D2000F095FE0021142000F06C
:1007600091FE0021202000F08DFE0021022000F0EB
:1007700089FE0021A12000F085FE0021C02000F0AC
:1007800081FE0021DA2000F07DFE0021122000F021
:1007900079FE0021812000F075FE0021EF2000F09D
:1007A00071FE0021D92000F06DFE0021F12000F043
:1007B00069FE0021DB2000F065FE0021302000F002
:1007C00061FE0021A42000F05DFE0021A62000F0C3
:1007D00059FE0021AF2000F055FE10BD10B501F00C
:1007E00013F84FF4803001F0D1F801F02DF90446F0
:1007F000012C24D1102000F057FB022000F062FBF6
:10080000002001F0B7F8002001F0F2F8A00201F09A
:10081000E3F84FF4E011200401F0FCF8012001F0AE
:10082000F3F800BF392001F07FF80028FAD0022049
:1008300001F0FEF800BF01F095F80828FBD110BDCB
:100840007FB505460C460121084600F09DFFADF836
:100850000850ADF804400020ADF80A00ADF80600DD
:1008600001A94FF0804001F00DFC012211469007D4
:1008700001F0F5FB1C208DF8000000208DF8010030
:1008800003208DF8020001208DF80300684600F077
:1008900079FD0121880701F0D0FA7FBD7FB50546BB
:1008A0000C460121022000F06FFFADF80850ADF8B2
:1008B00004400020ADF80A00ADF8060001A90F4879
:1008C00001F0E0FB20210D4801F0D2FB012211468E
:1008D0000A4801F0C4FB1D208DF8000001208DF8AE
:1008E00001008DF802008DF80300684600F04AFD13
:1008F0000121024801F0A1FA7FBD00000004004080
:100900003EB505460C460121042000F03DFF0C4891
:1009100001F0A0FAADF80450ADF800400020ADF8A9
:100920000600ADF802006946054801F0ABFB202146
:10093000034801F09DFB0121014801F07EFA3EBD14
:10094000000800407FB505460C460121082000F054
:100950001BFFADF80850ADF804400020ADF80A00C8
:10096000ADF8060001A90E4801F08CFB01221146EA
:100970000B4801F074FB32208DF8000000208DF848
:10098000010003208DF8020001208DF80300684665
:1009900000F0F8FC0121024801F04FFA7FBD000091
:1009A000000C004010B586B004460121880300F019
:1009B0000BFF0121042000F007FF4FF40070ADF899
:1009C000140018208DF8170003208DF8160005A9D3
:1009D000234800F083FA4FF48060ADF8140004203F
:1009E0008DF8170003208DF8160005A91C4800F0AB
:1009F00075FA01A801F0E5FC01940020ADF80800AB
:100A0000ADF80A00ADF80C000C20ADF80E00002087
:100A1000ADF8100001A9134801F05EFC25208DF807
:100A2000000001208DF801008DF802008DF8030010
:100A3000684600F0A7FC012240F22551094801F068
:100A400026FC012240F22771064801F020FC01211A
:100A5000044801F0D9FB00200349087006B010BD1E
:100A600000080140003801402000002039B1084A48
:100A70001268012383401A43054B1A6006E0044ABA
:100A80001268012383409A43014B1A6070470000AB
:100A90000074004041B1094A12684FF4805383400A
:100AA0001A43064B1A6007E0044A12684FF4805359
:100AB00083409A43014B1A60704700000074004065
:100AC00030B5002200230A4C226840F6FE748440B0
:100AD000A243D1E900452C438D682C43CD6844EAFC
:100AE000050303FA00F42243014C226030BD0000EC
:100AF0000074004008B500220092054A009200F1FF
:100B00000802009B1A440092009A116008BD000080
:100B10000074004010B50B4800F0DCF880B13A20BA
:100B200000F01F0201219140074A430942F82310B7
:100B300000BF064800F00EF8054803C8FFF7D8FCD0
:100B400010BD00000002001080E200E00001001073
:100B50002400002000F0805111B10349086001E039
:100B6000024948607047000004040240000002404F
:100B700021B1026842F00102026004E002684FF60F
:100B8000FE731A400260704701684FF6FE72114012
:100B900001600021016041608160C1604B49884271
:100BA00008D14A490839496841F00F01474A083AD3
:100BB00051608AE045491431884208D143490839D7
:100BC000496841F0F001414A083A51607DE03F49EF
:100BD0002831884208D13D490839496841F470619B
:100BE0003A4A083A516070E038493C31884208D1AD
:100BF00036490839496841F47041344A083A51602D
:100C000063E032495031884208D130490839496897
:100C100041F470212D4A083A516056E02B49643165
:100C2000884208D129490839496841F47001274AA6
:100C3000083A516049E025497831884208D1234972
:100C40000839496841F07061204A083A51603CE037
:100C50001F49884206D1011F096841F00F01021F98
:100C6000116032E01A491431884208D11849091F2D
:100C7000096841F0F001164A121F116025E014497D
:100C80002831884208D11249091F096841F470616E
:100C90000F4A121F116018E00D493C31884208D1FB
:100CA0000B49091F096841F47041094A121F11607C
:100CB0000BE007495031884207D10549091F0968EF
:100CC00041F47021024A121F11607047080002406F
:100CD0000804024001460020002201F0805313B1B5
:100CE000054B1A6801E0054B1A6802EA01030BB1D3
:100CF000012000E000207047000402400000024094
:100D00001AB103680B43036002E003688B4303607E
:100D1000704710B50022026847F6F0739A430C6AD8
:100D20008B6823430C6923434C6923438C69234319
:100D3000CC6923434C6A23438C6A23431A430260E1
:100D4000CB6843600B6883604B68C36010BD30B5EF
:100D50000346002016E0B3F900509C68645D0C5413
:100D60001C88641C24B21C80B3F90040B3F9045001
:100D7000AC4201DB00241C80441C20B2DC88641ED1
:100D800024B2DC80B3F90640002C01DD9042E2DBA6
:100D900030BD30B50346002018E0B3F900509C6820
:100DA00034F8154021F810401C88641C24B21C80C3
:100DB000B3F90040B3F90450AC4201DB00241C80BD
:100DC000441C20B2DC88641E24B2DC80B3F90640E7
:100DD000002C01DD9042E0DB30BD704701B50449D5
:100DE0000098086000BF024800680028FBD108BDD9
:100DF0009802002070B50346002016E00C5CB3F9A1
:100E000002609D68AC555C88641C24B25C80B3F9B8
:100E10000240B3F90450AC4201DB00245C80441C66
:100E200020B2DC88641C24B2DC80B3F90640B3F93C
:100E30000450AC4201DA9042E0DB70BD70B503466D
:100E4000002018E031F81040B3F902609D6825F8E1
:100E500016405C88641C24B25C80B3F90240B3F98C
:100E60000450AC4201DB00245C80441C20B2DC88CE
:100E7000641C24B2DC80B3F90640B3F90450AC42E0
:100E800001DA9042DEDB70BD10B501200449087024
:100E9000012240F22771034801F0F9F910BD00006A
:100EA00020000020003801400549096821F01001A8
:100EB000034A116011460968014311607047000040
:100EC0000020024001460020034A106800F038006C
:100ED0000843106070470000002002402DE9F041F7
:100EE000024600250026002000230024002791F858
:100EF00003C00CF00F0591F803C00CF0100CBCF10E
:100F0000000F03D091F802C04CEA050591F800C02B
:100F1000BCF1000F31D0146800202BE04FF0010C21
:100F20000CFA00F3B1F800C00CEA03069E4220D18F
:100F300083004FF00F0C0CFA03F7BC4305FA03FCD7
:100F40004CEA040491F803C0BCF1280F06D14FF01D
:100F5000010C0CFA00FCC2F814C00AE091F803C0BE
:100F6000BCF1480F05D14FF0010C0CFA00FCC2F89F
:100F700010C0401C0828D1D31460B1F800C0BCF1E7
:100F8000FF0F34DD546800202EE000F1080C4FF014
:100F9000010808FA0CF3B1F800C00CEA03069E42FF
:100FA00021D183004FF00F0C0CFA03F7BC4305FA74
:100FB00003FC4CEA040491F803C0BCF1280F05D1EE
:100FC00000F1080C08FA0CF8C2F8148091F803C07C
:100FD000BCF1480F07D100F1080C4FF0010808FAE6
:100FE0000CF8C2F81080401C0828CED35460BDE82D
:100FF000F0810246002093680B400BB1012000E015
:101000000020704702460020D3680B400BB101203E
:1010100000E00020704741617047016170470AB1EC
:10102000016100E0416170470148007870470000AD
:101030001B00002001480078704700001A000020C3
:1010400000487047F4000020004870472C00002042
:1010500000487047BC01002003490A6802604A68E2
:101060004260098901817047B402002000BFFEE799
:1010700010B540F2CF214FF47A70FFF70FFCFFF765
:1010800081F9FFF705FA64220249034800F004F9E8
:1010900010BD0000AC070020A007002010B56420A0
:1010A00006494860FFF7C4F90B213B20FFF728FCF5
:1010B000024803C8FFF71CFA10BD000024000020FE
:1010C00010B50446012C04D0022C07D0032C0FD1FC
:1010D00009E0FFF7B9FF084908600AE0FFF7B0FF31
:1010E0000549086005E0FFF7B3FF0349086000E029
:1010F00000BF00BF10BD00002400002010B500F0AC
:1011000015FE00F07BF800F025F84FF4E13000F018
:10111000D6F800F0B5F800F019F800F07DF8FFF708
:10112000A7FFFFF7BBFF00F005F800F054F800F050
:1011300015F810BD10B5FFF71BFA00200249087022
:101140004870887010BD00000F00002010B5FFF738
:1011500041FA10BD10B5FFF769FA10BD10B5FFF7E1
:101160006BFA4FF480410948FFF755FF0A20FFF75B
:1011700035FE4FF480410548FFF74FFF0A20FFF787
:101180002DFEFFF7C5FA00F03FF910BD000C01403D
:1011900000210C4A117051709170002005E000226E
:1011A0000849C91C0A54411C08B20728F7DB002172
:1011B000044A5172044A1170044A1170044A1170B1
:1011C00070470000B40200200C0000200D00002039
:1011D0000E0000207047704730B50B460024048095
:1011E00044808280C4808360002104E000248568FC
:1011F0006C544C1C21B29142F8DB30BD10B5FFF7A6
:10120000EDFA10BD704710B5FFF7C2FFFFF7E2FF20
:10121000FFF7F8FF10BD000030B5164800684FF426
:101220007A72B0FBF2F1B1F1807F01D301201DE0B1
:1012300021F07F40401E4FF0E022506150170F22F6
:10124000002807DA13071D0E0B4B00F00F04241FB4
:101250001D5503E013071C0E084B1C5400BF002053
:101260004FF0E022906107201061002008B100BF1C
:10127000FEE730BD9C02002018ED00E000E400E035
:1012800010B5472140F2E730FFF7DAFA472140F284
:10129000E730FFF757FB10BD30B50B460024048044
:1012A00044808280C4808360002105E0002485683A
:1012B00025F811404C1C21B29142F7DB30BD10B52E
:1012C000044600F005F82046FFF76CFB10BD000057
:1012D00010B5002406E000200949085509490855C1
:1012E000601C04B2642CF6DB642205490648FFF753
:1012F00073FF642203490548FFF76EFF10BD00002D
:10130000D80600203C070020C0060020CC060020A4
:1013100070B5044611480088401C104908800846F2
:101320000088A04219DB0020088010210C48FFF73C
:1013300069FEC0F10100C5B22A4610210848FFF736
:101340006EFE20210648FFF75DFEC0F10100C5B228
:101350002A4620210248FFF762FE70BD0A000020E5
:101360000010014000BFFEE77047000000F01F02C0
:1013700001219140024A430942F8231070470000BE
:1013800080E200E070B5002100230F22C47804B38E
:10139000154C246804F4E064C4F5E064210AC1F14A
:1013A0000403CA40447804FA03F1847814402143CA
:1013B00009010E4C0678A155047804F01F0501249C
:1013C000AC4005786D11AD0005F1E025C5F8004190
:1013D00009E0047804F01F050124AC40044D0678B0
:1013E000761145F8264070BD0CED00E000E400E009
:1013F00080E100E002490143024A116070470000A9
:101400000000FA050CED00E070B500240CE00025AA
:1014100006E00020074901EBC5010855681CC5B26C
:10142000802DF6DB601CC4B2082CF0DB00F004F861
:1014300070BD0000BE02002070B500241CE004F165
:10144000B001C8B2002100F01DF80021084600F0EC
:1014500019F80021102000F015F8002508E00849CF
:1014600001EBC501085D012100F00CF8681CC5B254
:10147000802DF4DB601CC4B2082CE0DB70BD0000E2
:10148000BE02002070B504460D4625B908211C484F
:10149000FFF7C1FD05E0012D03D108211848FFF732
:1014A000BCFD4FF480511748FFF7B5FD00261BE047
:1014B0004FF400511348FFF7AEFD04F0800028B14F
:1014C0004FF400410F48FFF7A8FD04E04FF400413E
:1014D0000C48FFF7A0FD4FF400510A48FFF79DFDAF
:1014E0006006040E701CC6B2082EE1DB4FF480517A
:1014F0000448FFF792FD08210148FFF78EFD70BDFB
:1015000000100140000C014001460020704770B5FA
:10151000044600252078802803DA0125204600F0C3
:1015200002F8284670BD10B50378002208210DE0AE
:101530005406220E445C42EAD412445C44F0800417
:101540004454445C1C44E3B24C1EE1B20129EFDC7C
:1015500042F08004447044781C44E3B243F08004B9
:10156000447210BD704710B5FFF75EFD08B1FEF77D
:10157000FDFE10BD1CB5FFF75DFD002856D0012112
:10158000684600F099FA18B19DF8000000F064F880
:1015900027480078401C264908700846007804282F
:1015A00021DB01A800F06CFAD0B1BDF80400C0EB5B
:1015B000C01040F6FF7190FBF1F0C4B21D481E4907
:1015C000097844541C480078401C1B4908700846A0
:1015D0000078052804DB00200870164800F00FFB97
:1015E0000020134908701548B0F90000042812DBE8
:1015F000134A1449002000F06FFA134A13490120DE
:1016000000F06AFA124A1349022000F065FA00203D
:101610000A49088005E009480088401C00B20749D3
:101620000880FA20FFF774FEFEF7A6FE1CBD00003E
:10163000000000200200002001000020080000201F
:10164000A11600083D170008FD1600083F17000806
:101650001D1700084117000830B587B0044617E091
:1016600001A8FFF7F9FC01A807C804AB07C39DF860
:10167000100071280AD10DF11300FFF745FF054650
:101680002A468021712000F081FA00E000BF00BFEF
:10169000204600F0A3FE0028E2D107B030BD0000D4
:1016A00010B515480078401C1349087008460078AA
:1016B00004281FDA08460078012804D0022809D03F
:1016C000032815D10DE00C480078FFF7F9FCFFF76F
:1016D000E5FC0EE008480078FFF7F2FCFFF7DEFCBF
:1016E00007E005480078FFF7EBFCFFF7D7FC00E0C8
:1016F00000BF00BF10BD00001800002010B502A000
:1017000000F002FF10BD00004B45593220505553E8
:101710004820444F574E0D0A0000000010B502A0AB
:1017200000F0F2FE10BD00004B45593320505553D8
:101730004820444F574E0D0A000000007047704784
:1017400070470146C88808B9012070470020FCE7AF
:1017500001460020034A506820F44040084350608E
:10176000704700000010024029B1064A5269024346
:10177000044B5A6104E0034A52698243014B5A61A7
:10178000704700000010024029B1064AD2690243A6
:10179000044BDA6104E0034AD2698243014BDA6107
:1017A000704700000010024029B1064A1269024346
:1017B000044B1A6104E0034A12698243014B1A6127
:1017C000704700000010024029B1064A92690243A6
:1017D000044B9A6104E0034A92698243014B9A6187
:1017E000704700000010024029B1064AD268024347
:1017F000044BDA6004E0034AD2688243014BDA60AA
:1018000070470000001002400F48006840F00100DF
:101810000D490860084640680C4908400A4948607C
:10182000084600680A4908400749086008460068F9
:1018300020F4802008600846406820F4FE004860DC
:101840004FF41F0088607047001002400000FFF84E
:10185000FFFFF6FE30B500210022002400232D4DAD
:101860006D6805F00C0121B1042905D0082923D1A8
:1018700005E0294D056022E0274D05601FE0254D5C
:101880006D6805F47012234D6D6805F480340225EF
:1018900005EB92421CB9214D554305600BE01D4DEF
:1018A0006D6805F400351DB11C4D5543056002E01F
:1018B000194D5543056002E0174D056000BF00BF9C
:1018C000144D6D6805F0F0010909154D6B5C056854
:1018D000DD4045600F4D6D6805F4E061090A104D6B
:1018E0006B5C4568DD4085600A4D6D6805F46051AC
:1018F000C90A0B4D6B5C4568DD40C560054D6D68E0
:1019000005F44041890B074D6B5CC568B5FBF3F5E9
:10191000056130BD0010024000127A0000093D0050
:10192000840200209402002010B50146002200230A
:1019300000204A11012A02D1094C236806E0022A3C
:1019400002D1074C236A01E0054C636A01F01F02D3
:10195000012494401C400CB1012000E0002010BD87
:10196000001002400248406800F00C007047000080
:101970000010024001460020034A506820F0F000A9
:101980000843506070470000001002401149096888
:1019900021F480310F4A11601146096821F4802139
:1019A0001160B0F5803F03D0B0F5802F0ED106E076
:1019B0000849096841F48031064A116007E0054989
:1019C000096841F4A021034A116000E000BF00BF94
:1019D000704700000010024001460020034A506892
:1019E00020F4E0600843506070470000001002409F
:1019F00001460020034A506820F4605040EAC100CC
:101A000050607047001002400149086670470000AE
:101A10000000424202460020044B586820F47C102B
:101A200042EA01031843014B58607047001002401E
:101A300001460020034A506820F00300084350602C
:101A4000704700000010024038B5002000900024CC
:101A5000002500BF3120FFF767FF05460098401CB6
:101A600000900098B0F5A06F01D0002DF2D0312089
:101A7000FFF75AFF08B1012400E00024204638BDDA
:101A800070B504460025012221460348FFF781F97D
:101A9000C5B2284670BD0000A007002070B50446FE
:101AA0000025012221460348FFF751F9C5B2284617
:101AB00070BD0000C006002070B504460D4600262B
:101AC0002A4621460248FFF742F9C6B2304670BDA9
:101AD000CC0600207047000070B504460D4616463F
:101AE0002548005D4006000E2349085524B1012C0D
:101AF0000CD0022C1ED113E002212048FFF779FA06
:101B00001D49095D08431C49085514E004211B4880
:101B1000FFF76FFA1849095D0843174908550AE0AD
:101B200001211748FFF765FA1349095D0843124977
:101B3000085500E000BF00BF0F48005D1149095D76
:101B4000884208D11048005D012804D1B047002028
:101B50000D4908550EE00848005D0A49095DC94372
:101B6000C9B2884206D10848005D18B9A8470120CB
:101B70000549085570BD000012000020001001400A
:101B8000000801400F00002015000020FEB50446AB
:101B90000E46154601208DF8000004208DF8020045
:101BA0008DF803408DF804608DF8055000218DF804
:101BB00006108DF807108DF80810684600F012F82E
:101BC000FEBD000010B50446E1B2054800F0F5FB8B
:101BD00000BF4021024800F023FB0028F9D010BDCF
:101BE0000038014070B504462046FFF790FC0546DA
:101BF000002D03DD0A21204600F06EFC70BD3EB5CD
:101C0000044671208DF8000001208DF80200207834
:101C10008DF8030061788DF80410A1788DF8051017
:101C2000E1788DF8061021798DF8071000218DF8E4
:101C300008106846FFF7D6FF3EBD10B500F002F869
:101C400010BD00000CB500200190009033480068E2
:101C500040F480303149086000BF3048006800F42B
:101C6000003000900198401C0190009818B901982C
:101C7000B0F5A06FF1D12948006800F4003010B130
:101C80000120009001E0002000900098012843D13D
:101C90002348006840F010002149086008460068A9
:101CA00020F0030008600846006840F00200086069
:101CB0001A48406819494860084640684860084624
:101CC000406840F4806048600846406820F47C101A
:101CD00048600846406840F4E810486008460068DC
:101CE00040F08070086000BF0C48006800F0007091
:101CF0000028F9D00948406820F0030007494860EF
:101D00000846406840F00200486000BF0348406851
:101D100000F00C000828F9D10CBD000000100240B2
:101D20000020024010B500F0FFF910BD10B51348B7
:101D3000006840F0010011490860084640681049F9
:101D400008400E494860084600680E4908400B49A3
:101D500008600846006820F4802008600846406853
:101D600020F4FE0048604FF41F008860FFF765FF15
:101D70004FF000600449086010BD000000100240F0
:101D80000000FFF8FFFFF6FE08ED00E010B50121AE
:101D9000880700F053F9012803D10121800700F0E2
:101DA00049F807480088401C054908800846008813
:101DB000022804DB0020088001200249087010BDC1
:101DC0001C0000201A00002010B50121064800F078
:101DD00035F918B10121044800F02CF803480088B7
:101DE00000F062FB10BD0000000400402200002053
:101DF00010B501210C4800F021F9012803D101217F
:101E0000094800F017F809480088401C0749088075
:101E100008460088B0F57A7F04DB002008800120A6
:101E20000349087010BD0000000C00401E00002097
:101E30001B000020CA430282704721B1028842F091
:101E40000102028004E002884FF6FE731A4002800D
:101E50007047000010B504466848844208D101214B
:101E6000C014FFF7C1FC0021E014FFF7BDFCC4E083
:101E7000B4F1804F08D101210846FFF795FC0021FD
:101E80000120FFF791FCB8E05D48844208D10121B0
:101E90000220FFF789FC00210220FFF785FCACE05F
:101EA0005848844208D101210420FFF77DFC00211D
:101EB0000420FFF779FCA0E05348844208D10121B7
:101EC0000820FFF771FC00210820FFF76DFC94E06B
:101ED0004E48844208D101211020FFF765FC002103
:101EE0001020FFF761FC88E04948844208D10121B5
:101EF0002020FFF759FC00212020FFF755FC7CE053
:101F00004448844208D101214014FFF76DFC0021B0
:101F10006014FFF769FC70E03F48844209D1012159
:101F2000C804FFF761FC00214FF40020FFF75CFCC0
:101F300063E03A48844209D101210805FFF754FCC7
:101F400000214FF48010FFF74FFC56E034488442E4
:101F500009D101214805FFF747FC00214FF400108B
:101F6000FFF742FC49E02F48844208D1012140207C
:101F7000FFF71AFC00214020FFF716FC3DE02A483D
:101F8000844208D101218020FFF70EFC002180202F
:101F9000FFF70AFC31E02548844208D10121801571
:101FA000FFF702FC0021A015FFF7FEFB25E020480B
:101FB000844209D101210804FFF716FC00214FF4E7
:101FC0008030FFF711FC18E01A48844209D1012142
:101FD0004804FFF709FC00214FF40030FFF704FC30
:101FE0000BE01548844208D101218804FFF7FCFB6F
:101FF00000214FF48020FFF7F7FB10BD002C0140BB
:102000000004004000080040000C004000100040A8
:102010000014004000340140004C014000500140D9
:102020000054014000180040001C00400020004007
:1020300000400140004401400048014030B50246E4
:10204000002000230024158A05EA0103958905EA8A
:10205000010413B10CB1012000E0002030BD1AB121
:1020600083890B43838102E083898B43838170479B
:1020700082884FF68F731A40828082880A4382805A
:1020800070470000002202881D4B98420ED01D4B65
:1020900098420BD0B0F1804F08D01B4B984205D02E
:1020A0001A4B984202D01A4B984204D14FF68F73C4
:1020B0001A404B881A43174B984207D0164B984248
:1020C00004D04FF6FF431A40CB881A4302808B8816
:1020D00083850B8803850A4B98420BD0094B9842A5
:1020E00008D00E4B984205D00D4B984202D00D4BB4
:1020F000984201D10B7A0386012383827047000046
:10210000002C014000340140000400400008004061
:10211000000C00400010004000140040004001404E
:1021200000440140004801400448006820B10348D1
:102130000068401E014908607047000098020020B6
:1021400008B50020009040F22551204800F075F8B5
:1021500058B12520FFF70AF91C4800F029F9C0B250
:1021600000909DF8000000F0ABF90821174800F03E
:1021700057F8012806D10821144800F02DF813481B
:1021800000F016F940F22771104800F056F8E0B15F
:1021900040F227710D4800F028F82520FFF7E6F8F7
:1021A0006846FFF77BFC9DF80010084800F005F931
:1021B0000748FFF7C6FA40B1002006490870002220
:1021C00040F22771014800F062F808BD0038014074
:1021D000C00600202000002001F40072B2F5007F4C
:1021E00000D100BFCA430280704710B5002200230F
:1021F00040F66A14A14200D100BF0A1201249440A3
:10220000A3B2DC43048010BD21B1828942F40052A4
:10221000828104E082894DF6FF731A408281704703
:1022200002460020B1F5007F00D100BF13880B40AB
:102230000BB1012000E00020704770B50246002479
:1022400000230025002040F66A16B14200D100BFED
:10225000C1F3421501F01F03012606FA03F3012D15
:1022600002D19689334006E0022D02D1168A33400E
:1022700001E0968A33400C12012606FA04F416880F
:10228000344013B10CB1012000E0002070BDF0B566
:102290000346002400260025002040F66A17B942B4
:1022A00000D100BF1846C1F3421401F01F060127F8
:1022B00007FA06F5012C01D10C3004E0022C01D103
:1022C000103000E014301AB107682F43076002E0B5
:1022D0000768AF430760F0BD2DE9F04786B00546BB
:1022E0000E460024A24600BFA1460027B08900B1D7
:1022F00000BF2F462C8A4CF6FF700440F088044340
:102300002C82AC894EF6F3100440B0883189084322
:10231000718908430443AC81AC8A4FF6FF40044006
:10232000B0890443AC8201A8FFF794FA1F488742A2
:1023300002D1DDF810A001E0DDF80CA0A88900F4BE
:10234000004040B10AEBCA0000EB0A1031684900B6
:10235000B0FBF1F807E00AEBCA0000EB0A103168A5
:102360008900B0FBF1F86420B8FBF0F0040120090B
:10237000642101FB1089A88900F4004040B132209B
:1023800000EBC900B0FBF1F000F00700044308E0E7
:10239000322000EB09106421B0FBF1F000F00F00D7
:1023A00004432C8106B0BDE8F087000000380140EE
:1023B00001468888C0F308007047C1F30802828094
:1023C00070474FF41651016000218180C180018166
:1023D0000C214181002181817047000070B50446C5
:1023E00000261B4D1B48007810B3802C1CDB1A48BC
:1023F00000782C5418480078401C1749087017487A
:102400000078401E154908700846007800281CDC3A
:10241000114800780A2818D1284600F021F806460D
:1024200000200C49087010E000200A4908700CE0F8
:10243000802C0ADA09200949087001200649087031
:1024400003480470012003490870304670BD000045
:10245000B40200200D0000200C0000200E0000201F
:1024600030B501460C784B78E018C4B202220BE07C
:10247000885C2044C4B203F00105885C65F3DF107A
:1024800088545B10501CC2B2092AF1DB04F07F00B3
:102490004D7A05F07F05A84201D0002030BD012013
:1024A000FCE700BFFEE7000031B5002401226946C9
:1024B0000248FEF7C3FCC4B2204638BDA007002086
:1024C00031B50024012269460248FEF793FCC4B2EC
:1024D000204638BDCC06002070B504460D460026C7
:1024E0002A4621460648FEF785FCC6B2642E04DA69
:1024F0000448007808B9FEF7C7FC304670BD0000FC
:10250000C006002020000020014A024900F013B854
:1025100059250008B002002002E008C8121F08C1B7
:10252000002AFAD170477047002001E001C1121F54
:10253000002AFBD170472DE9F04116460F460446AC
:10254000002503E03946B047641C6D1C2078002844
:10255000F8D12846BDE8F08170B504460D46E0B2DA
:10256000FFF730FB204670BDFEF74DFEFEF7C6FDBF
:1025700004A0FFF7C9FF03E0FEF7FCFFFEF7F3FF3F
:10258000FAE70000496E69742053797374656D2011
:10259000686173206265656E2066696E697368653F
:1025A000642E0D0A00000000C8250008000000206D
:1025B000B40200008C0100085C270008B40200206F
:1025C000C409000028250008012D14088008182FD0
:1025D000097F09FD09780AF10A670BDA0B490CB388
:1025E0000C190D790DD40D290E780EC00E020F3C7A
:1025F0000F6F0F9B0FBF0FDB0FEF0FFB0FFF041AC7
:10260000EF0C1ABF141A6F1C1C020FC0281C290ED5
:10261000D4341810190DB30C490CDA0B670BF10AFE
:10262000780AFD58111A09601023087F07FF0680F9
:1026300006020687050E0598042504B6034C03E63A
:102640000286022B02D60187013F01FD12C31290C0
:10265000126412401224121032041A04081A2410B0
:102660001A641812C312FD1A3F281CD6012B341805
:1026700010E6024C03B603250498040E05870502F4
:10268000580564FF067F071AFFFC095E02211252FB
:1026900012A412F6102B48019901EB013D028F02A2
:1026A000E10233038503D70329047B04CD041E050F
:1026B0007005C20514066606B8060A075C07AE0771
:1026C0001831085108A308F50847099909EB093D95
:1026D0000A8F0AE10A330B840BD60B280C7A0CCC38
:1026E0000C1E0D700DC20D140E660EB70E090F5B99
:1026F0000FAD661AAD081C090FB7141C140EC220CA
:102700001C1E0DCC2C1C280CD6381C330BE1441C91
:102710003D0AEB501C4709F55C1351081B08AE6CD1
:102720001C0A07B8781C1406C2841C1E05CD901C18
:102730002904D79C1C3303E1A81C3D02EBB41C48C0
:1027400001F6C052522D0102030404500906070885
:0C275000090204060884A24A04691C4126
:0400000508000131BD
:00000001FF
