:020000040800F2
:100000007008002045010008391300087510000829
:10001000351300084D050008D72100080000000036
:10002000000000000000000000000000251900088A
:10003000170E0008000000002F1400081D1B000808
:100040005F0100085F0100085F0100085F01000810
:100050005F0100085F0100085F0100085F01000800
:100060005F0100085F0100085F0100085F010008F0
:100070005F0100085F0100085F0100085F010008E0
:100080005F0100085F0100085F0100085F010008D0
:100090005F0100085F0100085F0100085F010008C0
:1000A0005F0100085F0100085F0100085F010008B0
:1000B000851B0008C11B00085F0100085F010008E4
:1000C0005F0100085F0100085F0100085F01000890
:1000D0005F0100083D1F00085F0100085F01000884
:1000E0005F0100085F0100085F0100085F01000870
:1000F0005F0100085F0100085F0100085F01000860
:100100005F0100085F010008E91B00085F010008AB
:100110005F0100085F0100085F0100085F0100083F
:100120005F0100085F010008510B00085F01000833
:10013000DFF80CD000F09AF800480047AD22000824
:10014000700800200648804706480047FEE7FEE7A3
:10015000FEE7FEE7FEE7FEE7FEE7FEE7FEE7FEE777
:10016000251B00083101000880EA010210B502F0E9
:100170000043400022D04A001FD0010E01EB126163
:10018000C0F35600C2F3560240F4000042F40002ED
:10019000A0FB022000047F39140400D0401C50EA68
:1001A000124001D44000491EC2B20C0604EBD0102C
:1001B000401C4008802A02D003E0002010BD20F03F
:1001C0000100002900DA0020184310BD9623002208
:1001D000114600F01DB820F00040C10DC0F316001C
:1001E00040F400007F2901DA00207047962903DCE3
:1001F000C1F19601C8407047963988407047002980
:10020000A8BF7047401C490008BF20F0010070479C
:1002100010B4B0FA80FC00FA0CF050EA010404BFFC
:1002200010BC704749B1CCF1200421FA04F411FA52
:100230000CF118BF012121430843A3EB0C01CB1D96
:100240004FEA00614FEA102042BF002010BC704707
:1002500000EBC35010440029A4BF10BC7047401CE1
:10026000490008BF20F0010010BC7047064C074D44
:1002700006E0E06840F0010394E807009847103476
:10028000AC42F6D3FFF758FFC0220008E022000876
:1002900070B58C1810F8015B15F0070301D110F848
:1002A000013B2A1106D110F8012B03E010F8016B75
:1002B00001F8016B5B1EF9D12B0705D40023521EF8
:1002C0000DD401F8013BFAE710F8013BCB1A921C60
:1002D00003E013F8015B01F8015B521EF9D5A1425E
:1002E000D8D3002070BD21B1826842F00102826043
:1002F00003E0826822F001028260704721B18268C7
:1003000042F48072826003E0826822F4807282602C
:10031000704721B1826842F48012826003E08268F3
:1003200022F4801282607047014600208A6802F041
:1003300004020AB1012000E00020704701460020BD
:100340008A6802F008020AB1012000E0002070472C
:1003500030B502460020002350680F4C20400D7934
:100360000C6844EA05242043506090680B4C204000
:10037000D1E902542C434D7944EA4504204390606E
:10038000D06A20F470000C7C641EE4B2234340EA7F
:100390000350D06230BD0000FFFEF0FFFDF7F1FF1B
:1003A000F0B504460D4600200021092D11DDE0685E
:1003B000A5F10A0606EB4607072606FA07F1884369
:1003C000A5F10A0606EB460603FA06F10843E060CB
:1003D0000CE0206905EB4507072606FA07F188437C
:1003E00005EB450603FA06F108432061072A0FDAF8
:1003F000606B561E06EB86071F2606FA07F1884338
:10040000561E06EB860605FA06F10843606322E0F5
:100410000D2A0FDA206BD61F06EB86071F2606FA79
:1004200007F18843D61F06EB860605FA06F1084356
:10043000206310E0E06AA2F10D0606EB86071F2696
:1004400006FA07F18843A2F10D0606EB860605FAC7
:1004500006F10843E062F0BD816841F00801816067
:100460007047816841F004018160704710B504460F
:1004700064B3012C04D0022C0ED0032C24D117E03D
:10048000134801F003FF40F6BE71884203DA1149B8
:100490000F4801F0E2FE18E00F4801F0F7FE40F6C9
:1004A000BE71884203DA0B490B4801F0D6FE0CE01E
:1004B0000A4801F0EBFE40F6BE71884203DA0549B6
:1004C000064801F0CAFE00E000BF00BF10BD0000FA
:1004D0002C000020CDCC8C3FBC010020F40000207B
:1004E00010B504464CB3012C04D0022C0DD0032CC3
:1004F00021D115E0114801F0C9FEB0F5C87F03DD38
:100500000F490E4801F0A9FE16E00E4801F0BEFEAC
:10051000B0F5C87F03DD0A490A4801F09EFE0BE0F2
:10052000094801F0B3FEB0F5C87F03DD0449064871
:1005300001F093FE00E000BF00BF10BD2C000020C2
:100540006666663FBC010020F400002000BFFEE7A5
:1005500000200149087070471B000020002001495D
:10056000087070471A00002000B587B04FF40040B3
:1005700001F024F80121480201F05CF80121042077
:1005800001F058F80220ADF8180000208DF81B008B
:1005900006A91E4800F0B4FC0020019001208DF84F
:1005A000080000208DF809004FF40020039000207F
:1005B000049001208DF8140001A91548FFF7C8FE2A
:1005C0000723012211461248FFF7EAFE01211048D5
:1005D000FFF794FE01210E48FFF79BFE01210C4816
:1005E000FFF781FE0A48FFF737FF00BF0848FFF713
:1005F000A5FE0028FAD10648FFF733FF00BF0448E4
:10060000FFF792FE0028FAD107B000BD00080140B4
:100610000024014000B585B00121042001F00AF852
:100620000121480700F0E6FF1020ADF8100003207C
:100630008DF8120000208DF8130004A90C4800F07A
:100640005FFC2C20009000200190029003906946EE
:1006500000F054FA0121002000F03AFA0021084687
:1006600000F066FA0121002000F01EFA05B000BD7E
:100670000008014000B58BB00121084600F0AAFF38
:10068000114800F09FFA1148009011480190002095
:1006900002900120039000200490802005904000EB
:1006A00006908000079020200890C001099000204B
:1006B0000A906946044800F04AFB0121024800F014
:1006C00075FA0BB000BD0000080002404C24014048
:1006D0002200002003B58DB00121022000F07AFF36
:1006E0001A4800F06FFA1A4802900D9803900E987D
:1006F0000590102004900020069080200790400074
:1007000008908000099020200A9000020B900020A1
:100710000C9002A90D4800F01AFB3A208DF8040055
:1007200000208DF805008DF8060001208DF80700E7
:1007300001A800F00FFE01220221044800F0FEFA99
:100740000121024800F032FA0FB000BD300402402F
:100750000874004008B50121042000F06BFF01215E
:10076000102000F067FF0220ADF8000001208DF896
:10077000020048208DF8030069460D4800F0C0FBD8
:100780000420ADF8000048208DF8030069460848B1
:1007900000F0B6FB0120ADF800008DF80200482003
:1007A0008DF803006946034800F0AAFB08BD00006D
:1007B000001001400008014008B50121102000F0A0
:1007C00039FF1020ADF8000003208DF80200102042
:1007D0008DF8030069460D4800F092FB01221021BC
:1007E0000A4800F02AFC2020ADF8000003208DF814
:1007F000020010208DF803006946044800F080FBD9
:1008000000222021014800F018FC08BD0010014022
:1008100010B54FF4A06000F0D5FD10BD10B500F08C
:1008200029FF4FF4803000F0E7FF01F043F8044661
:10083000012C24D1102000F049FB022000F054FBD1
:10084000002000F0CDFF002001F008F8A00200F029
:10085000F9FF4FF4E011200401F012F8012001F03B
:1008600009F800BF392000F095FF0028FAD00220D7
:1008700001F014F800BF00F0ABFF0828FBD110BD59
:100880007FB505460C460121084600F0B3FEADF8E1
:100890000850ADF804400020ADF80A00ADF806009D
:1008A00001A94FF0804001F0EBFA012211469007B8
:1008B00001F0D3FA1C208DF8000000208DF8010013
:1008C00003208DF8020001208DF80300684600F037
:1008D00041FD0121880701F0AEF97FBD7FB50546D6
:1008E0000C460121022000F085FEADF80850ADF85D
:1008F00004400020ADF80A00ADF8060001A90F4839
:1009000001F0BEFA20210D4801F0B0FA0122114693
:100910000A4801F0A2FA1D208DF8000001208DF890
:1009200001008DF802008DF80300684600F012FD0A
:100930000121024801F07FF97FBD00000004004062
:100940003EB505460C460121042000F053FE0C483C
:1009500001F07EF9ADF80450ADF800400020ADF88C
:100960000600ADF802006946054801F089FA202129
:10097000034801F07BFA0121014801F05CF93EBD1A
:10098000000800407FB505460C460121082000F014
:1009900031FEADF80850ADF804400020ADF80A0073
:1009A000ADF8060001A90E4801F06AFA01221146CD
:1009B0000B4801F052FA32208DF8000000208DF82B
:1009C000010003208DF8020001208DF80300684625
:1009D00000F0C0FC0121024801F02DF97FBD0000AC
:1009E000000C004010B586B004460121880300F0D9
:1009F00021FE0121042000F01DFE4FF40070ADF82F
:100A0000140018208DF8170003208DF8160005A992
:100A1000224800F075FA4FF48060ADF8140004200D
:100A20008DF8170005A91D4800F06AFA01A801F029
:100A3000C6FB01940020ADF80800ADF80A00ADF83F
:100A40000C000C20ADF80E000020ADF8100001A93C
:100A5000134801F03FFB25208DF8000001208DF8A0
:100A600001008DF802008DF80300684600F072FC6A
:100A7000012240F225510A4801F007FB012240F211
:100A80002771074801F001FB0121054801F0BAFA7E
:100A900000200449087006B010BD000000080140A5
:100AA000003801402000002039B1084A12680123B3
:100AB00083401A43054B1A6006E0044A126801237A
:100AC00083409A43014B1A60704700000074004055
:100AD00041B1094A12684FF4805383401A43064BD0
:100AE0001A6007E0044A12684FF4805383409A4327
:100AF000014B1A60704700000074004030B50022BE
:100B000000230A4C226840F6FE748440A243D1E9D7
:100B100000452C438D682C43CD6844EA050303FA55
:100B200000F42243014C226030BD000000740040FC
:100B300008B500220092054A009200F10802009BCD
:100B40001A440092009A116008BD00000074004031
:100B500010B50B4800F0DCF880B13A2000F01F021D
:100B600001219140074A430942F8231000BF06487B
:100B700000F00EF8054803C8FFF7ACFD10BD0000FB
:100B80000002001080E200E00001001024000020BC
:100B900000F0805111B10349086001E0024948604A
:100BA00070470000040402400000024021B10268C6
:100BB00042F00102026004E002684FF6FE731A4040
:100BC0000260704701684FF6FE721140016000211B
:100BD000016041608160C1604B49884208D14A4947
:100BE0000839496841F00F01474A083A51608AE0E4
:100BF00045491431884208D143490839496841F0D0
:100C0000F001414A083A51607DE03F49283188426D
:100C100008D13D490839496841F470613A4A083AB7
:100C2000516070E038493C31884208D13649083972
:100C3000496841F47041344A083A516063E03249EE
:100C40005031884208D130490839496841F470214F
:100C50002D4A083A516056E02B496431884208D148
:100C600029490839496841F47001274A083A516016
:100C700049E025497831884208D123490839496833
:100C800041F07061204A083A51603CE01F498842B7
:100C900006D1011F096841F00F01021F116032E007
:100CA0001A491431884208D11849091F096841F0CE
:100CB000F001164A121F116025E0144928318842BC
:100CC00008D11249091F096841F470610F4A121FC7
:100CD000116018E00D493C31884208D10B49091FC9
:100CE000096841F47041094A121F11600BE007497D
:100CF0005031884207D10549091F096841F4702124
:100D0000024A121F116070470800024008040240A6
:100D100001460020002201F0805313B1054B1A68F0
:100D200001E0054B1A6802EA01030BB1012000E063
:100D30000020704700040240000002401AB103681E
:100D40000B43036002E003688B430360704710B5F8
:100D50000022026847F6F0739A430C6A8B682343BB
:100D60000C6923434C6923438C692343CC69234397
:100D70004C6A23438C6A23431A430260CB68436066
:100D80000B6883604B68C36010BD30B5034600201C
:100D900016E0B3F900509C68645D0C541C88641C18
:100DA00024B21C80B3F90040B3F90450AC4201DB1B
:100DB00000241C80441C20B2DC88641E24B2DC8029
:100DC000B3F90640002C01DD9042E2DB30BD30B5C6
:100DD0000346002018E0B3F900509C6834F8154031
:100DE00021F810401C88641C24B21C80B3F9004018
:100DF000B3F90450AC4201DB00241C80441C20B237
:100E0000DC88641E24B2DC80B3F90640002C01DDCE
:100E10009042E0DB30BD704770B50346002016E01D
:100E20000C5CB3F902609D68AC555C88641C24B20C
:100E30005C80B3F90240B3F90450AC4201DB0024FA
:100E40005C80441C20B2DC88641C24B2DC80B3F9D2
:100E50000640B3F90450AC4201DA9042E0DB70BDC9
:100E600070B50346002018E031F81040B3F9026075
:100E70009D6825F816405C88641C24B25C80B3F938
:100E80000240B3F90450AC4201DB00245C80441CF6
:100E900020B2DC88641C24B2DC80B3F90640B3F9CC
:100EA0000450AC4201DA9042DEDB70BD10B5012087
:100EB00004490870012240F22771034801F0E5F867
:100EC00010BD0000200000200038014005490968DD
:100ED00021F01001034A11601146096801431160B5
:100EE000704700000020024001460020034A1068BD
:100EF00000F03800084310607047000000200240F6
:100F00002DE9F041024600250026002000230024A0
:100F1000002791F803C00CF00F0591F803C00CF006
:100F2000100CBCF1000F03D091F802C04CEA05058B
:100F300091F800C0BCF1000F31D0146800202BE004
:100F40004FF0010C0CFA00F3B1F800C00CEA0306F4
:100F50009E4220D183004FF00F0C0CFA03F7BC43E4
:100F600005FA03FC4CEA040491F803C0BCF1280F15
:100F700006D14FF0010C0CFA00FCC2F814C00AE0D4
:100F800091F803C0BCF1480F05D14FF0010C0CFAE9
:100F900000FCC2F810C0401C0828D1D31460B1F87E
:100FA00000C0BCF1FF0F34DD546800202EE000F1DA
:100FB000080C4FF0010808FA0CF3B1F800C00CEA75
:100FC00003069E4221D183004FF00F0C0CFA03F769
:100FD000BC4305FA03FC4CEA040491F803C0BCF1DD
:100FE000280F05D100F1080C08FA0CF8C2F814809B
:100FF00091F803C0BCF1480F07D100F1080C4FF085
:10100000010808FA0CF8C2F81080401C0828CED35A
:101010005460BDE8F0810246002093680B400BB19C
:10102000012000E00020704702460020D3680B40FA
:101030000BB1012000E0002070470AB1016100E01F
:101040004161704701480078704700001B00002094
:1010500001480078704700001A00002000487047DF
:10106000F4000020004870472C0000200048704722
:10107000BC01002000BFFEE710B540F2CF214FF4C5
:101080007A70FFF72BFCFFF76FFAFFF7F3FA642291
:101090000249034800F0E8F810BD0000A803002052
:1010A0009C03002010B5642006494860FFF7B2FA9F
:1010B0000B213B20FFF744FC024803C8FFF70AFB63
:1010C00010BD00002400002010B50446012C04D0FF
:1010D000022C07D0032C0FD109E0FFF7C3FF08490A
:1010E00008600AE0FFF7C2FF0549086005E0FFF766
:1010F000B5FF0349086000E000BF00BF10BD00005D
:101100002400002010B500F00DFD00F05FF800F0A5
:1011100023F84FF4E13000F0BAF800F099F800F04D
:1011200017F800F061F8FFF7A7FFFFF7BBFF00F02B
:1011300003F800F038F810BD10B5FFF70BFB0020E6
:10114000024908704870887010BD00000F00002030
:1011500010B5FFF731FB10BD10B5FFF759FB10BDFF
:1011600000210C4A117051709170002005E000229E
:101170000849C91C0A54411C08B20728F7DB0021A2
:10118000044A5172044A1170044A1170044A1170E1
:1011900070470000B00200200C0000200D0000206D
:1011A0000E0000207047704730B50B4600240480C5
:1011B00044808280C4808360002104E0002485682C
:1011C0006C544C1C21B29142F8DB30BD10B5FFF7D6
:1011D00025FB10BD704710B5FFF7C2FFFFF7FAFF00
:1011E000FFF7E0FF10BD000030B5164800684FF46F
:1011F0007A72B0FBF2F1B1F1807F01D301201DE0E2
:1012000021F07F40401E4FF0E022506150170F2226
:10121000002807DA13071D0E0B4B00F00F04241FE4
:101220001D5503E013071C0E084B1C5400BF002083
:101230004FF0E022906107201061002008B100BF4C
:10124000FEE730BD9C02002018ED00E000E400E065
:1012500010B5472140F2E730FFF712FB472140F27B
:10126000E730FFF78FFB10BD30B50B46002404803C
:1012700044808280C4808360002105E0002485686A
:1012800025F811404C1C21B29142F7DB30BD10B55E
:10129000044600F005F82046FFF7A4FB10BD00004F
:1012A00010B5002406E000200949085509490855F1
:1012B000601C04B2642CF6DB642205490648FFF783
:1012C00073FF642203490548FFF76EFF10BD00005D
:1012D000D402002038030020BC020020C8020020F5
:1012E00070B5044611480088401C10490880084623
:1012F0000088A04219DB0020088010210C48FFF76D
:1013000093FEC0F10100C5B22A4610210848FFF73C
:1013100094FE20210648FFF787FEC0F10100C5B208
:101320002A4620210248FFF788FE70BD0A000020EF
:101330000010014000BFFEE77047000000F01F02F0
:1013400001219140024A430942F8231070470000EE
:1013500080E200E070B5002100230F22C47804B3BE
:10136000154C246804F4E064C4F5E064210AC1F17A
:101370000403CA40447804FA03F1847814402143FA
:1013800009010E4C0678A155047804F01F050124CC
:10139000AC4005786D11AD0005F1E025C5F80041C0
:1013A00009E0047804F01F050124AC40044D0678E0
:1013B000761145F8264070BD0CED00E000E400E039
:1013C00080E100E002490143024A116070470000D9
:1013D0000000FA050CED00E070B504460025207809
:1013E000802803DA0125204600F002F8284670BD67
:1013F00010B50378002208210DE05406220E445C4B
:1014000042EAD412445C44F080044454445C1C44DA
:10141000E3B24C1EE1B20129EFDC42F080044470DB
:1014200044781C44E3B243F08004447210BD70471A
:1014300010B5FFF707FE08B1FFF78AF810BD0000EE
:1014400038B5FFF705FE00284CD027480078401C2F
:101450002549087025480088401C00B223490880AF
:1014600021480078042821DB684600F03FFAD0B11B
:10147000BDF80000C0EBC01040F6FF7190FBF1F02A
:10148000C4B21B481B49097844541A480078401CD0
:101490001849087008460078052804DB0020087009
:1014A000134800F0A9FA00200F4908700F48B0F95E
:1014B0000000042811DB104A1049002000F034FA23
:1014C0000F4A1049012000F02FFA0F4A0F4902205D
:1014D00000F02AFA002005490880FA20FFF700FFF3
:1014E000FFF73CF838BD000002000020000000209B
:1014F000040000200300002011150008A9150008B1
:1015000071150008AB1500088D150008AD15000811
:1015100010B516480078401C144908700846007839
:1015200004281FDA08460078012804D0022809D0D0
:10153000032815D10DE00D480078FFF7C5FDFFF732
:10154000B1FD0EE009480078FFF7BEFDFFF7AAFDE8
:1015500007E006480078FFF7B7FDFFF7A3FD00E0BE
:1015600000BF02E000200149087010BD18000020F3
:1015700010B505480078FEF779FF03480078FFF7BB
:10158000A3FDFFF78FFD10BD1800002010B5054822
:101590000078FEF7A5FF03480078FFF795FDFFF7F9
:1015A00081FD10BD1800002070477047704701464C
:1015B000C88808B9012070470020FCE701460020D8
:1015C000034A506820F440400843506070470000D0
:1015D0000010024029B1064A52690243044B5A6185
:1015E00004E0034A52698243014B5A61704700008C
:1015F0000010024029B1064AD2690243044BDA6165
:1016000004E0034AD2698243014BDA61704700006B
:101610000010024029B1064A12690243044B1A61C4
:1016200004E0034A12698243014B1A6170470000CB
:101630000010024029B1064A92690243044B9A61A4
:1016400004E0034A92698243014B9A6170470000AB
:101650000010024029B1064AD2680243044BDA6006
:1016600004E0034AD2688243014BDA60704700000D
:10167000001002400F48006840F001000D4908606A
:10168000084640680C4908400A4948600846006816
:101690000A490840074908600846006820F480208D
:1016A00008600846406820F4FE0048604FF41F00C0
:1016B00088607047001002400000FFF8FFFFF6FE50
:1016C00030B500210022002400232D4D6D6805F067
:1016D0000C0121B1042905D0082923D105E0294DA9
:1016E000056022E0274D05601FE0254D6D6805F47B
:1016F0007012234D6D6805F48034022505EB92428B
:101700001CB9214D554305600BE01D4D6D6805F476
:1017100000351DB11C4D5543056002E0194D554380
:10172000056002E0174D056000BF00BF144D6D68F5
:1017300005F0F0010909154D6B5C0568DD40456059
:101740000F4D6D6805F4E061090A104D6B5C45684A
:10175000DD4085600A4D6D6805F46051C90A0B4D86
:101760006B5C4568DD40C560054D6D6805F4404122
:10177000890B074D6B5CC568B5FBF3F5056130BDA2
:101780000010024000127A0000093D00840200208F
:101790009402002010B501460022002300204A11C7
:1017A000012A02D1094C236806E0022A02D1074C23
:1017B000236A01E0054C636A01F01F020124944092
:1017C0001C400CB1012000E0002010BD00100240C0
:1017D0000248406800F00C00704700000010024012
:1017E00001460020034A506820F0F0000843506092
:1017F00070470000001002401149096821F480314F
:101800000F4A11601146096821F480211160B0F57A
:10181000803F03D0B0F5802F0ED106E0084909685B
:1018200041F48031064A116007E00549096841F436
:10183000A021034A116000E000BF00BF7047000014
:101840000010024001460020034A506820F4E06086
:10185000084350607047000000100240014600201D
:10186000034A506820F4605040EAC100506070475D
:101870000010024001490866704700000000424223
:1018800002460020044B586820F47C1042EA010311
:101890001843014B58607047001002400146002079
:1018A000034A506820F0030008435060704700006E
:1018B0000010024038B5002000900024002500BF31
:1018C0003120FFF767FF05460098401C0090009804
:1018D000B0F5A06F01D0002DF2D03120FFF75AFFF4
:1018E00008B1012400E00024204638BD70B504464C
:1018F0000025012221460348FFF769FAC5B22846B0
:1019000070BD00009C03002070B504460025012234
:1019100021460348FFF739FAC5B2284670BD0000DA
:10192000BC0200207047000070B504460D46164604
:101930002548005D4006000E2349085524B1012CBE
:101940000CD0022C1ED113E002212048FFF763FBCC
:101950001D49095D08431C49085514E004211B4832
:10196000FFF759FB1849095D0843174908550AE074
:1019700001211748FFF74FFB1349095D084312493E
:10198000085500E000BF00BF0F48005D1149095D28
:10199000884208D11048005D012804D1B0470020DA
:1019A0000D4908550EE00848005D0A49095DC94324
:1019B000C9B2884206D10848005D18B9A84701207D
:1019C0000549085570BD00001200002000100140BC
:1019D000000801400F0000201500002070B50446EB
:1019E00000252046FFF7F8FC0546002D03DD0A21FF
:1019F000204600F00BFC70BD3EB5044671208DF80A
:101A0000000001208DF8020020788DF80300617835
:101A10008DF80410A1788DF80510E1788DF8061086
:101A200021798DF8071000218DF808106846FFF71E
:101A3000D5FF3EBD10B500F001F810BD0CB500207B
:101A4000019000903348006840F4803031490860CC
:101A500000BF3048006800F4003000900198401C3E
:101A60000190009818B90198B0F5A06FF1D12948FC
:101A7000006800F4003010B10120009001E0002067
:101A800000900098012843D12348006840F01000DE
:101A9000214908600846006820F0030008600846F5
:101AA000006840F0020008601A4840681949486020
:101AB0000846406848600846406840F480604860D6
:101AC0000846406820F47C1048600846406840F4AE
:101AD000E81048600846006840F08070086000BF69
:101AE0000C48006800F000700028F9D009484068F0
:101AF00020F00300074948600846406840F00200B3
:101B0000486000BF0348406800F00C000828F9D185
:101B10000CBD0000001002400020024010B500F093
:101B200001FA10BD10B51348006840F001001149DA
:101B3000086008464068104908400E494860084659
:101B400000680E4908400B4908600846006820F408
:101B5000802008600846406820F4FE0048604FF48A
:101B60001F008860FFF766FF4FF0006004490860BF
:101B700010BD0000001002400000FFF8FFFFF6FE5D
:101B800008ED00E010B50121880700F055F90128A3
:101B900003D10121800700F04BF807480088401C62
:101BA0000549088008460088022804DB00200880D8
:101BB00001200249087010BD1C0000201A000020FE
:101BC00010B50121064800F037F918B10121044889
:101BD00000F02EF80348008800F000FB10BD000064
:101BE000000400402200002010B501210D4800F043
:101BF00023F9012803D101210A4800F019F80A4805
:101C00000088401C00B2084908800846B0F900006E
:101C1000B0F57A7F04DB00200880012003490870BA
:101C200010BD0000000C00401E0000201B00002022
:101C3000CA430282704721B1028842F00102028049
:101C400004E002884FF6FE731A40028070470000DD
:101C500010B504466848844208D10121C014FFF73A
:101C6000F9FC0021E014FFF7F5FCC4E0B4F1804F6B
:101C700008D101210846FFF7CDFC00210120FFF724
:101C8000C9FCB8E05D48844208D101210220FFF779
:101C9000C1FC00210220FFF7BDFCACE058488442A3
:101CA00008D101210420FFF7B5FC00210420FFF733
:101CB000B1FCA0E05348844208D101210820FFF77D
:101CC000A9FC00210820FFF7A5FC94E04E488442BF
:101CD00008D101211020FFF79DFC00211020FFF703
:101CE00099FC88E04948844208D101212020FFF76F
:101CF00091FC00212020FFF78DFC7CE044488442C9
:101D000008D101214014FFF7A5FC00216014FFF762
:101D1000A1FC70E03F48844209D10121C804FFF7CB
:101D200099FC00214FF40020FFF794FC63E03A484F
:101D3000844209D101210805FFF78CFC00214FF4F2
:101D40008010FFF787FC56E03448844209D1012116
:101D50004805FFF77FFC00214FF40010FFF77AFCE5
:101D600049E02F48844208D101214020FFF752FC6E
:101D700000214020FFF74EFC3DE02A48844208D174
:101D800001218020FFF746FC00218020FFF742FC64
:101D900031E02548844208D101218015FFF73AFC43
:101DA0000021A015FFF736FC25E02048844209D128
:101DB00001210804FFF74EFC00214FF48030FFF7AB
:101DC00049FC18E01A48844209D101214804FFF770
:101DD00041FC00214FF40030FFF73CFC0BE01548BC
:101DE000844208D101218804FFF734FC00214FF41C
:101DF0008020FFF72FFC10BD002C014000040040A4
:101E000000080040000C004000100040001400409A
:101E100000340140004C014000500140005401409A
:101E200000180040001C004000200040004001401D
:101E3000004401400048014030B502460020002324
:101E40000024158A05EA0103958905EA010413B106
:101E50000CB1012000E0002030BD1AB183890B4392
:101E6000838102E083898B438381704782884FF6A8
:101E70008F731A40828082880A43828070470000F4
:101E8000002202881D4B98420ED01D4B98420BD069
:101E9000B0F1804F08D01B4B984205D01A4B9842A6
:101EA00002D01A4B984204D14FF68F731A404B88D8
:101EB0001A43174B984207D0164B984204D04FF65E
:101EC000FF431A40CB881A4302808B8883850B8896
:101ED00003850A4B98420BD0094B984208D00E4B11
:101EE000984205D00D4B984202D00D4B984201D13B
:101EF0000B7A03860123838270470000002C014087
:101F0000003401400004004000080040000C004084
:101F10000010004000140040004001400044014017
:101F2000004801400448006820B103480068401E92
:101F300001490860704700009802002008B50020A1
:101F4000009040F22551204800F075F858B1252046
:101F5000FFF7F4F91C4800F029F9C0B200909DF891
:101F6000000000F047F90821174800F057F8012851
:101F700006D10821144800F02DF8134800F016F996
:101F800040F22771104800F056F8E0B140F2277196
:101F90000D4800F028F82520FFF7D0F96846FFF734
:101FA000B3FC9DF80010084800F005F90748FFF75A
:101FB000FEFA40B1002006490870002240F2277165
:101FC000014800F062F808BD00380140BC02002062
:101FD0002000002001F40072B2F5007F00D100BFA4
:101FE000CA430280704710B50022002340F66A14ED
:101FF000A14200D100BF0A1201249440A3B2DC43E5
:10200000048010BD21B1828942F40052828104E033
:1020100082894DF6FF731A40828170470246002084
:10202000B1F5007F00D100BF13880B400BB1012038
:1020300000E00020704770B5024600240023002510
:10204000002040F66A16B14200D100BFC1F342152C
:1020500001F01F03012606FA03F3012D02D1968930
:10206000334006E0022D02D1168A334001E0968A01
:1020700033400C12012606FA04F41688344013B1DA
:102080000CB1012000E0002070BDF0B50346002433
:1020900000260025002040F66A17B94200D100BF93
:1020A0001846C1F3421401F01F06012707FA06F58E
:1020B000012C01D10C3004E0022C01D1103000E0E1
:1020C00014301AB107682F43076002E00768AF4376
:1020D0000760F0BD2DE9F04786B005460E460024A6
:1020E000A24600BFA1460027B08900B100BF2F461D
:1020F0002C8A4CF6FF700440F08804432C82AC8993
:102100004EF6F3100440B0883189084371890843C2
:102110000443AC81AC8A4FF6FF400440B0890443CD
:10212000AC8201A8FFF7CCFA1F48874202D1DDF844
:1021300010A001E0DDF80CA0A88900F4004040B137
:102140000AEBCA0000EB0A1031684900B0FBF1F855
:1021500007E00AEBCA0000EB0A1031688900B0FB07
:10216000F1F86420B8FBF0F004012009642101FBC0
:102170001089A88900F4004040B1322000EBC9006A
:10218000B0FBF1F000F00700044308E0322000EB60
:1021900009106421B0FBF1F000F00F0004432C8122
:1021A00006B0BDE8F087000000380140014688888D
:1021B000C0F308007047C1F30802828070474FF4F3
:1021C0001651016000218180C18001810C21418173
:1021D00000218181704700BFFEE7000031B5002477
:1021E000012269460248FEF73BFEC4B2204638BDD4
:1021F0009C03002031B50024012269460248FEF705
:102200000BFEC4B2204638BDC802002070B504469B
:102210000D4600262A4621460648FEF7FDFDC6B2B9
:10222000642E04DA0448007808B9FEF73FFE304611
:1022300070BD0000BC0200202000002002E008C8A1
:10224000121F08C1002AFAD170477047002001E030
:1022500001C1121F002AFBD170472DE9F04105464C
:102260000E4600240EE035F81400FDF7AFFF80465F
:102270003146FDF779FF0746FDF7ADFF25F814005D
:10228000601C84B2642CEEDBBDE8F08102460021C4
:10229000002000BF07E032F81130834201DB32F842
:1022A00011004B1C99B26429F5DB7047FEF793FFD0
:1022B000FEF728FF03E0FFF7C3F8FFF7B9F8FAE7E6
:1022C000E022000800000020B00200009002000898
:1022D00074240008B0020020C00500004C22000851
:1022E000012D14088008182F097F09FD09780AF1CB
:1022F0000A670BDA0B490CB30C190D790DD40D29B3
:102300000E780EC00E020F3C0F6F0F9B0FBF0FDB3E
:102310000FEF0FFB0FFF041AEF0C1ABF141A6F1CFC
:102320001C020FC0281C290ED4341810190DB30C30
:10233000490CDA0B670BF10A780AFD58111A09608B
:102340001023087F07FF068006020687050E059802
:10235000042504B6034C03E60286022B02D601874D
:10236000013F01FD12C31290126412401224121098
:1023700032041A04081A24101A641812C312FD1A1F
:102380003F281CD6012B341810E6024C03B6032557
:102390000498040E05870502580564FF067F071A96
:1023A000FFFC095E0221125212A412F6102B480102
:1023B0009901EB013D028F02E10233038503D7034C
:1023C00029047B04CD041E057005C20514066606AB
:1023D000B8060A075C07AE071831085108A308F5CC
:1023E0000847099909EB093D0A8F0AE10A330B8472
:1023F0000BD60B280C7A0CCC0C1E0D700DC20D14D4
:102400000E660EB70E090F5B0FAD661AAD081C09FC
:102410000FB7141C140EC2201C1E0DCC2C1C280C33
:10242000D6381C330BE1441C3D0AEB501C4709F520
:102430005C1351081B08AE6C1C0A07B8781C140604
:10244000C2841C1E05CD901C2904D79C1C3303E1BB
:10245000A81C3D02EBB41C4801F6C052522D0102EB
:102460000304045009060708090204060884A24A66
:0424700004691C00DF
:0400000508000131BD
:00000001FF
